{
    "contractName": "Deal",
    "abi": [
        {
            "inputs": [
                {
                    "internalType": "address[]",
                    "name": "_owners",
                    "type": "address[]"
                }
            ],
            "stateMutability": "nonpayable",
            "type": "constructor"
        },
        {
            "anonymous": false,
            "inputs": [
                {
                    "indexed": false,
                    "internalType": "address payable",
                    "name": "recipient",
                    "type": "address"
                },
                {
                    "indexed": false,
                    "internalType": "uint256",
                    "name": "amount",
                    "type": "uint256"
                }
            ],
            "name": "ApproveTransaction",
            "type": "event"
        },
        {
            "inputs": [
                {
                    "internalType": "string",
                    "name": "productName",
                    "type": "string"
                }
            ],
            "name": "buyProduct",
            "outputs": [],
            "stateMutability": "payable",
            "type": "function"
        },
        {
            "inputs": [
                {
                    "internalType": "uint256",
                    "name": "invoiceIndex",
                    "type": "uint256"
                }
            ],
            "name": "confirmProductSale",
            "outputs": [],
            "stateMutability": "nonpayable",
            "type": "function"
        },
        {
            "inputs": [
                {
                    "internalType": "uint256",
                    "name": "complaintIndex",
                    "type": "uint256"
                }
            ],
            "name": "getComplaintInfo",
            "outputs": [
                {
                    "components": [
                        {
                            "internalType": "address payable",
                            "name": "buyer",
                            "type": "address"
                        },
                        {
                            "internalType": "address payable",
                            "name": "seller",
                            "type": "address"
                        },
                        {
                            "internalType": "string",
                            "name": "productName",
                            "type": "string"
                        },
                        {
                            "internalType": "uint256",
                            "name": "price",
                            "type": "uint256"
                        },
                        {
                            "internalType": "uint256",
                            "name": "date",
                            "type": "uint256"
                        },
                        {
                            "internalType": "uint256",
                            "name": "transactionIndex",
                            "type": "uint256"
                        },
                        {
                            "internalType": "bool",
                            "name": "isConfirmed",
                            "type": "bool"
                        }
                    ],
                    "internalType": "struct Deal.Invoice",
                    "name": "",
                    "type": "tuple"
                },
                {
                    "internalType": "string",
                    "name": "",
                    "type": "string"
                },
                {
                    "internalType": "string",
                    "name": "",
                    "type": "string"
                },
                {
                    "internalType": "string",
                    "name": "",
                    "type": "string"
                },
                {
                    "internalType": "bool",
                    "name": "",
                    "type": "bool"
                }
            ],
            "stateMutability": "view",
            "type": "function"
        },
        {
            "inputs": [
                {
                    "internalType": "uint256",
                    "name": "invoiceIndex",
                    "type": "uint256"
                }
            ],
            "name": "getInvoiceInfo",
            "outputs": [
                {
                    "internalType": "address",
                    "name": "",
                    "type": "address"
                },
                {
                    "internalType": "address payable",
                    "name": "",
                    "type": "address"
                },
                {
                    "internalType": "string",
                    "name": "",
                    "type": "string"
                },
                {
                    "internalType": "uint256",
                    "name": "",
                    "type": "uint256"
                },
                {
                    "internalType": "uint256",
                    "name": "",
                    "type": "uint256"
                }
            ],
            "stateMutability": "view",
            "type": "function"
        },
        {
            "inputs": [
                {
                    "internalType": "string",
                    "name": "name",
                    "type": "string"
                }
            ],
            "name": "getProductInfo",
            "outputs": [
                {
                    "internalType": "uint256",
                    "name": "",
                    "type": "uint256"
                },
                {
                    "internalType": "string",
                    "name": "",
                    "type": "string"
                },
                {
                    "internalType": "bool",
                    "name": "",
                    "type": "bool"
                },
                {
                    "internalType": "address",
                    "name": "",
                    "type": "address"
                }
            ],
            "stateMutability": "view",
            "type": "function"
        },
        {
            "inputs": [
                {
                    "internalType": "uint256",
                    "name": "invoiceIndex",
                    "type": "uint256"
                },
                {
                    "internalType": "string",
                    "name": "comment",
                    "type": "string"
                }
            ],
            "name": "makeComplaint",
            "outputs": [],
            "stateMutability": "nonpayable",
            "type": "function"
        },
        {
            "inputs": [
                {
                    "internalType": "uint256",
                    "name": "complaintIndex",
                    "type": "uint256"
                },
                {
                    "internalType": "string",
                    "name": "comment",
                    "type": "string"
                },
                {
                    "internalType": "bool",
                    "name": "acceptPayment",
                    "type": "bool"
                }
            ],
            "name": "resolveComplaint",
            "outputs": [],
            "stateMutability": "payable",
            "type": "function"
        }
    ],
    "bytecode": "6080604052600060065560006007553480156200001b57600080fd5b50604051620046ad380380620046ad8339810160408190526200003e9162000804565b8051600314620000ba5760405162461bcd60e51b815260206004820152603660248201527f436f6e74726163742061636365707473206f6e6c792033206f776e657273206660448201527f6f7220746865204d756c74697369672077616c6c657400000000000000000000606482015260840160405180910390fd5b806002604051620000cb90620007cb565b620000d8929190620008dd565b604051809103906000f080158015620000f5573d6000803e3d6000fd5b506000806101000a8154816001600160a01b0302191690836001600160a01b0316021790555060405180604001604052806040516200013490620007d9565b6040808252600490820152635553444360e01b6060820152608060208201819052600890820152672aa9a21031b7b4b760c11b60a082015260c001604051809103906000f0801580156200018c573d6000803e3d6000fd5b506001600160a01b031681526000602090910152604051635553444360e01b81526005906004019081526040805191829003602090810183208451815495909201511515600160a01b026001600160a81b03199095166001600160a01b039092169190911793909317909255808201918290529081906200020d90620007d9565b604080825260039082018190526244414960e81b60608301526080602083018190528201526244616960e81b60a082015260c001604051809103906000f0801580156200025e573d6000803e3d6000fd5b506001600160a01b0316815260006020909101526040516244414960e81b81526005906003019081526040805191829003602090810183208451815495909201511515600160a01b026001600160a81b03199095166001600160a01b03909216919091179390931790925580820191829052908190620002de90620007d9565b6040808252600490820152634c494e4b60e01b606082015260806020820181905260099082015268436861696e6c696e6b60b81b60a082015260c001604051809103906000f08015801562000337573d6000803e3d6000fd5b506001600160a01b031681526000602090910152604051634c494e4b60e01b81526005906004019081526040805191829003602090810183208451815495909201511515600160a01b026001600160a81b03199095166001600160a01b03909216919091179390931790925580820191829052908190620003b890620007d9565b60408082526003908201526208aa8960eb1b606082015260806020820181905260089082015267457468657265756d60c01b60a082015260c001604051809103906000f0801580156200040f573d6000803e3d6000fd5b506001600160a01b0316815260006020909101526040516208aa8960eb1b815260059060030190815260408051918290036020908101832084518154958301511515600160a01b026001600160a81b03199096166001600160a01b039091161794909417909355608082018152600182525190918201906005906200049e90635553444360e01b815260040190565b9081526040805160209281900383019020546001600160a01b031683526000918301919091523391810191909152516342696b6560e01b815260049081019081526040805191829003602090810183208451815584820151600182018054878601511515600160a01b026001600160a81b03199091166001600160a01b039384161717905560609095015160029091018054919095166001600160a01b031991909116179093556080820181526005808352905191928301916200056b906244414960e81b815260030190565b9081526040805160209281900383019020546001600160a01b031683526001918301919091523391810191909152516221b0b960e91b81526004906003019081526040805191829003602090810183208451815584820151600182018054878601511515600160a01b026001600160a81b03199091166001600160a01b039384161717905560609095015160029182018054919096166001600160a01b031991909116179094556080830182529282525190918201906005906200063990634c494e4b60e01b815260040190565b9081526040805160209281900383019020546001600160a01b0316835260009183019190915233918101919091525166526f6c6c65727360c81b81526004906007019081526040805191829003602090810183208451815584820151600182018054878601511515600160a01b026001600160a81b03199091166001600160a01b039384161717905560609095015160029091018054919095166001600160a01b03199190911617909355608082018152671bc16d674ec80000825251909182019060059062000712906208aa8960eb1b815260030190565b9081526040805160209281900383019020546001600160a01b031683526000918301919091523391810191909152516914dad85d19589bd85c9960b21b8152600490600a01908152604080519182900360209081019092208351815591830151600183018054928501511515600160a01b026001600160a81b03199093166001600160a01b03928316179290921790915560609092015160029091018054919092166001600160a01b0319919091161790555062000946565b610e3e8062002c0683390190565b610c698062003a4483390190565b80516001600160a01b0381168114620007ff57600080fd5b919050565b600060208083850312156200081857600080fd5b82516001600160401b03808211156200083057600080fd5b818501915085601f8301126200084557600080fd5b8151818111156200085a576200085a62000930565b8060051b604051601f19603f8301168101818110858211171562000882576200088262000930565b604052828152858101935084860182860187018a1015620008a257600080fd5b600095505b83861015620008d057620008bb81620007e7565b855260019590950194938601938601620008a7565b5098975050505050505050565b604080825283519082018190526000906020906060840190828701845b82811015620009215781516001600160a01b031684529284019290840190600101620008fa565b50505092019290925292915050565b634e487b7160e01b600052604160045260246000fd5b6122b080620009566000396000f3fe6080604052600436106100705760003560e01c806357ba11b01161004e57806357ba11b0146100bd5780636b867085146100f65780639f42f74814610116578063ea6e738e1461014757600080fd5b806305e3118414610075578063364e022f146100975780633b2e2387146100aa575b600080fd5b34801561008157600080fd5b50610095610090366004611df8565b610178565b005b6100956100a5366004611d2b565b6104d8565b6100956100b8366004611e3f565b610daa565b3480156100c957600080fd5b506100dd6100d8366004611d2b565b6110f0565b6040516100ed9493929190612105565b60405180910390f35b34801561010257600080fd5b50610095610111366004611ddf565b61121d565b34801561012257600080fd5b50610136610131366004611ddf565b611586565b6040516100ed959493929190611f7e565b34801561015357600080fd5b50610167610162366004611ddf565b611687565b6040516100ed959493929190612044565b60075482106101a25760405162461bcd60e51b815260040161019990611fbe565b60405180910390fd5b6000828152600360205260409020546001600160a01b03163314806101e057506000828152600360205260409020600101546001600160a01b031633145b6102435760405162461bcd60e51b815260206004820152602e60248201527f497420697320696d706f737369626c6520746f20636f6d706c61696e206e6f7460448201526d20796f75727320696e766f69636560901b6064820152608401610199565b6040805160208082018352600080835283518083018552818152868252600390925292909220549091906001600160a01b031633141561028557829150610288565b50815b6040805160008681526003602052829020610180820190925281546001600160a01b0390811660a08301908152600184015490911660c083015260028301805492938493909160e08501916102dc906121e7565b80601f0160208091040260200160405190810160405280929190818152602001828054610308906121e7565b80156103555780601f1061032a57610100808354040283529160200191610355565b820191906000526020600020905b81548152906001019060200180831161033857829003601f168201915b505050918352505060038201546020808301919091526004830154604080840191909152600584015460608085019190915260069485015460ff1615156080948501529486528582018990528581018890528051808301825260008082529587015294909101839052905482526002808252918390208451805182546001600160a01b039182166001600160a01b031991821617845582850151600185018054919093169116179055938401518051919493859361041893918501920190611bc3565b50606082015160038201556080820151600482015560a0820151600582015560c0909101516006909101805460ff191691151591909117905560208281015180516104699260078501920190611bc3565b5060408201518051610485916008840191602090910190611bc3565b50606082015180516104a1916009840191602090910190611bc3565b5060809190910151600a909101805460ff1916911515919091179055600680549060006104cd83612222565b919050555050505050565b6004816040516104e89190611ec6565b9081526040519081900360200190205461055f5760405162461bcd60e51b815260206004820152603260248201527f5075726368617365206f662061206e6f6e2d6578697374656e742070726f64756044820152716374206973206e6f7420706f737369626c6560701b6064820152608401610199565b6001546001600160a01b03163314156105c55760405162461bcd60e51b815260206004820152602260248201527f5468652061726269747261746f722063616e27742062757920612070726f647560448201526118dd60f21b6064820152608401610199565b336001600160a01b03166004826040516105df9190611ec6565b908152604051908190036020019020600201546001600160a01b0316141561065d5760405162461bcd60e51b815260206004820152602b60248201527f5468652070726f64756374206f776e65722063616e277420627579206869732060448201526a1bdddb881c1c9bd91d58dd60aa1b6064820152608401610199565b6040518060e00160405280336001600160a01b031681526020016004836040516106879190611ec6565b9081526040805160209281900383019020600201546001600160a01b0316835290820184905280519101906004906106c0908590611ec6565b9081526040805191829003602090810190922054835242838301526007548382018190526000606090940184905283526003825291829020835181546001600160a01b039182166001600160a01b03199182161783558584015160018401805491909316911617905591830151805161073f9260028501920190611bc3565b50606082015181600301556080820151816004015560a0820151816005015560c08201518160060160006101000a81548160ff02191690831515021790555090505060006004826040516107939190611ec6565b90815260408051918290036020018220600101546395d89b4160e01b835290516001600160a01b03909116916395d89b41916004808301926000929190829003018186803b1580156107e457600080fd5b505afa1580156107f8573d6000803e3d6000fd5b505050506040513d6000823e601f3d908101601f191682016040526108209190810190611d68565b6040516208aa8960eb1b6020820152909150602301604051602081830303815290604052805190602001208160405160200161085c9190611ec6565b604051602081830303815290604052805190602001201415610a2e57346004836040516108899190611ec6565b90815260405190819003602001902054146109185760405162461bcd60e51b815260206004820152604360248201527f546865207061696420616d6f756e74206f66204574686572206973206469666660448201527f6572656e74207468616e20746865207072696365206f66207468652070726f646064820152621d58dd60ea1b608482015260a401610199565b60008054600754825260036020819052604092839020600181015491015492516313bc110960e11b81523360048201526001600160a01b03918216602482015260448101939093521690632778221290606401600060405180830381600087803b15801561098557600080fd5b505af1158015610999573d6000803e3d6000fd5b5050600080546007548252600360205260409182902060050154915163887e7be560e01b815233600482015260248101929092526001600160a01b0316925063887e7be59150604401600060405180830381600087803b1580156109fc57600080fd5b505af1158015610a10573d6000803e3d6000fd5b505060078054925090506000610a2583612222565b91905055505050565b600581604051610a3e9190611ec6565b9081526040519081900360200190205460ff600160a01b9091041615610ac35760405162461bcd60e51b815260206004820152603460248201527f455243323020546f6b656e20666f7220746869732070726f6475637420686173604482015273081899595b88185b1c9958591e481b5a5b9d195960621b6064820152608401610199565b34600483604051610ad49190611ec6565b90815260405190819003602001902054610af690670de0b6b3a7640000612198565b14610ba55760405162461bcd60e51b815260206004820152606d60248201527f546f206d616b652061206465706f73697420666f72207468652070726f64756360448201527f742c20796f75206e65656420746f2070617920746865207072696365206f662060648201527f746f6b656e7320696e207468652045746865722c20776865726520746865207260848201526c617465206973203120746f203160981b60a482015260c401610199565b60008054600754825260036020819052604092839020600181015491015492516313bc110960e11b81523360048201526001600160a01b03918216602482015260448101939093521690632778221290606401600060405180830381600087803b158015610c1257600080fd5b505af1158015610c26573d6000803e3d6000fd5b5050600080546007548252600360205260409182902060050154915163887e7be560e01b815233600482015260248101929092526001600160a01b0316925063887e7be59150604401600060405180830381600087803b158015610c8957600080fd5b505af1158015610c9d573d6000803e3d6000fd5b505060078054925090506000610cb283612222565b9190505550600581604051610cc79190611ec6565b908152604051908190036020018120546001600160a01b0316906340c10f19903090600490610cf7908790611ec6565b908152604051908190036020018120546001600160e01b031960e085901b168252610d3992916004016001600160a01b03929092168252602082015260400190565b600060405180830381600087803b158015610d5357600080fd5b505af1158015610d67573d6000803e3d6000fd5b505050506001600582604051610d7d9190611ec6565b9081526040519081900360200190208054911515600160a01b0260ff60a01b199092169190911790555050565b6006548310610dcb5760405162461bcd60e51b815260040161019990612000565b6000838152600260205260409020546001600160a01b0316331415610e325760405162461bcd60e51b815260206004820181905260248201527f42757965722063616e206e6f74207265736f6c766520636f6d706c61696e74736044820152606401610199565b6000838152600260205260409020600101546001600160a01b0316331415610ea65760405162461bcd60e51b815260206004820152602160248201527f53656c6c65722063616e206e6f74207265736f6c766520636f6d706c61696e746044820152607360f81b6064820152608401610199565b6000838152600260205260409020600a015460ff16151560011415610f275760405162461bcd60e51b815260206004820152603160248201527f4f6e6c7920756e7265736f6c76656420636f6d706c61696e747320697320706f604482015270737369626c6520746f207265736f6c766560781b6064820152608401610199565b600180546001600160a01b03191633179055600083815260026020526040902081156110745760008054858252600260205260409182902060050154915163887e7be560e01b815233600482015260248101929092526001600160a01b03169063887e7be590604401600060405180830381600087803b158015610faa57600080fd5b505af1158015610fbe573d6000803e3d6000fd5b505060008054878252600260205260409182902060050154915163683ae08360e01b815233600482015260248101929092526001600160a01b0316925063683ae0839150604401600060405180830381600087803b15801561101f57600080fd5b505af1158015611033573d6000803e3d6000fd5b5050505061106f60048260020160405161104d9190611ee2565b90815260405190819003602001902060018301546001600160a01b03166119d7565b6110a9565b6110a960048260020160405161108a9190611ee2565b90815260405190819003602001902082546001600160a01b03166119d7565b600084815260026020908152604090912084516110ce92600990920191860190611bc3565b505050600091825250600260205260409020600a01805460ff19166001179055565b600060606000806004856040516111079190611ec6565b9081526040519081900360200181205490600490611126908890611ec6565b90815260408051918290036020018220600101546306fdde0360e01b835290516001600160a01b03909116916306fdde03916004808301926000929190829003018186803b15801561117757600080fd5b505afa15801561118b573d6000803e3d6000fd5b505050506040513d6000823e601f3d908101601f191682016040526111b39190810190611d68565b6004876040516111c39190611ec6565b9081526040519081900360200181206001015460ff600160a01b90910416906004906111f0908a90611ec6565b9081526040519081900360200190206002015492965090945092506001600160a01b031690509193509193565b6000818152600360205260409020600101546001600160a01b031633146112c85760405162461bcd60e51b815260206004820152605360248201527f496e206f7264657220746f20636f6e6669726d207468652070726f647563742060448201527f73616c652c206974206973206e656365737361727920746f20626520612073656064820152721b1b195c881bd9881d1a19481c1c9bd91d58dd606a1b608482015260a401610199565b60008054828252600360205260409182902060050154915163887e7be560e01b815233600482015260248101929092526001600160a01b03169063887e7be590604401600060405180830381600087803b15801561132557600080fd5b505af1158015611339573d6000803e3d6000fd5b505060008054848252600360205260409182902060050154915163683ae08360e01b815233600482015260248101929092526001600160a01b0316925063683ae0839150604401600060405180830381600087803b15801561139a57600080fd5b505af11580156113ae573d6000803e3d6000fd5b5050600080548482526003602052604080832060050154905163067d47b960e31b815260048101919091529193506001600160a01b031691506333ea3dc89060240160806040518083038186803b15801561140857600080fd5b505afa15801561141c573d6000803e3d6000fd5b505050506040513d601f19601f820116820180604052508101906114409190611cb2565b5092505050806114b85760405162461bcd60e51b815260206004820152603c60248201527f546865207472616e73616374696f6e206973206e6f7420636f6e6669726d656460448201527f206279206174206c656173742074776f20706572736f6e7320796574000000006064820152608401610199565b61150f6004600360008581526020019081526020016000206002016040516114e09190611ee2565b9081526040805160209281900383019020600086815260039093529120600101546001600160a01b03166119d7565b6000828152600360205260409081902060068101805460ff19166001179055805491516001600160a01b039092169160049161155091600290910190611ee2565b90815260405190819003602001902060020180546001600160a01b03929092166001600160a01b03199092169190911790555050565b600080606060008060075486106115af5760405162461bcd60e51b815260040161019990611fbe565b600086815260036020819052604090912080546001820154928201546004830154600290930180546001600160a01b039384169590931693909283906115f4906121e7565b80601f0160208091040260200160405190810160405280929190818152602001828054611620906121e7565b801561166d5780601f106116425761010080835404028352916020019161166d565b820191906000526020600020905b81548152906001019060200180831161165057829003601f168201915b505050505092509450945094509450945091939590929450565b6116db6040518060e0016040528060006001600160a01b0316815260200160006001600160a01b03168152602001606081526020016000815260200160008152602001600081526020016000151581525090565b6060806060600060065486106117035760405162461bcd60e51b815260040161019990612000565b600086815260026020818152604092839020600a810154845160e08101865282546001600160a01b039081168252600184015416938101939093529281018054919460078601946008870194600988019460ff9092169390928892908401919061176c906121e7565b80601f0160208091040260200160405190810160405280929190818152602001828054611798906121e7565b80156117e55780601f106117ba576101008083540402835291602001916117e5565b820191906000526020600020905b8154815290600101906020018083116117c857829003601f168201915b505050918352505060038201546020820152600482015460408201526005820154606082015260069091015460ff1615156080909101528454909550849061182c906121e7565b80601f0160208091040260200160405190810160405280929190818152602001828054611858906121e7565b80156118a55780601f1061187a576101008083540402835291602001916118a5565b820191906000526020600020905b81548152906001019060200180831161188857829003601f168201915b505050505093508280546118b8906121e7565b80601f01602080910402602001604051908101604052809291908181526020018280546118e4906121e7565b80156119315780601f1061190657610100808354040283529160200191611931565b820191906000526020600020905b81548152906001019060200180831161191457829003601f168201915b50505050509250818054611944906121e7565b80601f0160208091040260200160405190810160405280929190818152602001828054611970906121e7565b80156119bd5780601f10611992576101008083540402835291602001916119bd565b820191906000526020600020905b8154815290600101906020018083116119a057829003601f168201915b505050505091509450945094509450945091939590929450565b6001820154604080516395d89b4160e01b815290516000926001600160a01b0316916395d89b419160048083019286929190829003018186803b158015611a1d57600080fd5b505afa158015611a31573d6000803e3d6000fd5b505050506040513d6000823e601f3d908101601f19168201604052611a599190810190611d68565b6040516208aa8960eb1b60208201529091506023016040516020818303038152906040528051906020012081604051602001611a959190611ec6565b604051602081830303815290604052805190602001201415611aed5782546040516001600160a01b0384169180156108fc02916000818181858888f19350505050158015611ae7573d6000803e3d6000fd5b50611b79565b6001830154835460405163a9059cbb60e01b81526001600160a01b038581166004830152602482019290925291169063a9059cbb90604401602060405180830381600087803b158015611b3f57600080fd5b505af1158015611b53573d6000803e3d6000fd5b505050506040513d601f19601f82011682018060405250810190611b779190611d07565b505b8254604080516001600160a01b038516815260208101929092527ffa624aadd8a0eae4ee975eae5cf13c9803b361b7fa2d832427db6207c0882193910160405180910390a1505050565b828054611bcf906121e7565b90600052602060002090601f016020900481019282611bf15760008555611c37565b82601f10611c0a57805160ff1916838001178555611c37565b82800160010185558215611c37579182015b82811115611c37578251825591602001919060010190611c1c565b50611c43929150611c47565b5090565b5b80821115611c435760008155600101611c48565b600082601f830112611c6d57600080fd5b8135611c80611c7b82612170565b61213f565b818152846020838601011115611c9557600080fd5b816020850160208301376000918101602001919091529392505050565b60008060008060808587031215611cc857600080fd5b84516001600160a01b0381168114611cdf57600080fd5b602086015160408701519195509350611cf781612269565b6060959095015193969295505050565b600060208284031215611d1957600080fd5b8151611d2481612269565b9392505050565b600060208284031215611d3d57600080fd5b813567ffffffffffffffff811115611d5457600080fd5b611d6084828501611c5c565b949350505050565b600060208284031215611d7a57600080fd5b815167ffffffffffffffff811115611d9157600080fd5b8201601f81018413611da257600080fd5b8051611db0611c7b82612170565b818152856020838501011115611dc557600080fd5b611dd68260208301602086016121b7565b95945050505050565b600060208284031215611df157600080fd5b5035919050565b60008060408385031215611e0b57600080fd5b82359150602083013567ffffffffffffffff811115611e2957600080fd5b611e3585828601611c5c565b9150509250929050565b600080600060608486031215611e5457600080fd5b83359250602084013567ffffffffffffffff811115611e7257600080fd5b611e7e86828701611c5c565b9250506040840135611e8f81612269565b809150509250925092565b60008151808452611eb28160208601602086016121b7565b601f01601f19169290920160200192915050565b60008251611ed88184602087016121b7565b9190910192915050565b600080835481600182811c915080831680611efe57607f831692505b6020808410821415611f1e57634e487b7160e01b86526022600452602486fd5b818015611f325760018114611f4357611f70565b60ff19861689528489019650611f70565b60008a81526020902060005b86811015611f685781548b820152908501908301611f4f565b505084890196505b509498975050505050505050565b6001600160a01b0386811682528516602082015260a060408201819052600090611faa90830186611e9a565b606083019490945250608001529392505050565b60208082526022908201527f5468657265206973206e6f20696e766f69636520666f72207468697320696e646040820152610caf60f31b606082015260800190565b60208082526024908201527f5468657265206973206e6f20636f6d706c61696e7420666f72207468697320696040820152630dcc8caf60e31b606082015260800190565b60a08152600060018060a01b038088511660a08401528060208901511660c084015250604087015160e080840152612080610180840182611e9a565b90506060880151610100840152608088015161012084015260a088015161014084015260c0880151151561016084015282810360208401526120c28188611e9a565b905082810360408401526120d68187611e9a565b905082810360608401526120ea8186611e9a565b9150506120fb608083018415159052565b9695505050505050565b84815260806020820152600061211e6080830186611e9a565b9315156040830152506001600160a01b039190911660609091015292915050565b604051601f8201601f1916810167ffffffffffffffff8111828210171561216857612168612253565b604052919050565b600067ffffffffffffffff82111561218a5761218a612253565b50601f01601f191660200190565b60008160001904831182151516156121b2576121b261223d565b500290565b60005b838110156121d25781810151838201526020016121ba565b838111156121e1576000848401525b50505050565b600181811c908216806121fb57607f821691505b6020821081141561221c57634e487b7160e01b600052602260045260246000fd5b50919050565b60006000198214156122365761223661223d565b5060010190565b634e487b7160e01b600052601160045260246000fd5b634e487b7160e01b600052604160045260246000fd5b801515811461227757600080fd5b5056fea2646970667358221220eed49eb665657c8d0d373b40a1989bc63dd6686f907899046e6f0fa9c5df927864736f6c6343000807003360806040523480156200001157600080fd5b5060405162000e3e38038062000e3e8339810160408190526200003491620002ac565b60008251116200008b5760405162461bcd60e51b815260206004820152601f60248201527f4d756c746953696757616c6c65743a206f776e6572732072657175697265640060448201526064015b60405180910390fd5b6000811180156200009d575081518111155b620001115760405162461bcd60e51b815260206004820152603860248201527f4d756c746953696757616c6c65743a20696e76616c6964206e756d626572206f60448201527f6620726571756972656420636f6e6669726d6174696f6e730000000000000000606482015260840162000082565b60005b825181101562000284576000838281518110620001355762000135620003b7565b6020026020010151905060006001600160a01b0316816001600160a01b03161415620001a45760405162461bcd60e51b815260206004820152601d60248201527f4d756c746953696757616c6c65743a20696e76616c6964206f776e6572000000604482015260640162000082565b6001600160a01b03811660009081526001602052604090205460ff16156200020f5760405162461bcd60e51b815260206004820181905260248201527f4d756c746953696757616c6c65743a206f776e6572206e6f7420756e69717565604482015260640162000082565b6001600160a01b031660008181526001602081905260408220805460ff191682179055815490810182559080527f290decd9548b62a8d60345a988386fc84ba6bc95484008f6362f93160ef3e5630180546001600160a01b0319169091179055806200027b816200038d565b91505062000114565b5060025550620003e3565b80516001600160a01b0381168114620002a757600080fd5b919050565b60008060408385031215620002c057600080fd5b82516001600160401b0380821115620002d857600080fd5b818501915085601f830112620002ed57600080fd5b8151602082821115620003045762000304620003cd565b8160051b604051601f19603f830116810181811086821117156200032c576200032c620003cd565b604052838152828101945085830182870184018b10156200034c57600080fd5b600096505b848710156200037a5762000365816200028f565b86526001969096019594830194830162000351565b5097909101519698969750505050505050565b6000600019821415620003b057634e487b7160e01b600052601160045260246000fd5b5060010190565b634e487b7160e01b600052603260045260246000fd5b634e487b7160e01b600052604160045260246000fd5b610a4b80620003f36000396000f3fe608060405234801561001057600080fd5b50600436106100a95760003560e01c8063683ae08311610071578063683ae0831461017b57806380f59a651461018e578063887e7be5146101bc5780639ace38c2146101cf578063a0e67e2b146101e2578063d0549b85146101f757600080fd5b8063025e7c27146100ae57806327782212146100de5780632e7700f0146100f35780632f54bf6e1461010557806333ea3dc814610138575b600080fd5b6100c16100bc36600461088c565b610200565b6040516001600160a01b0390911681526020015b60405180910390f35b6100f16100ec366004610826565b61022a565b005b6004545b6040519081526020016100d5565b610128610113366004610804565b60016020526000908152604090205460ff1681565b60405190151581526020016100d5565b61014b61014636600461088c565b6103a8565b604080516001600160a01b03909516855260208501939093529015159183019190915260608201526080016100d5565b6100f1610189366004610862565b610403565b61012861019c3660046108a5565b600360209081526000928352604080842090915290825290205460ff1681565b6100f16101ca366004610862565b61057a565b61014b6101dd36600461088c565b61073f565b6101ea610786565b6040516100d591906108d1565b6100f760025481565b6000818154811061021057600080fd5b6000918252602090912001546001600160a01b0316905081565b6001600160a01b038316600090815260016020526040902054839060ff1661026d5760405162461bcd60e51b81526004016102649061091e565b60405180910390fd5b60048054604080516080810182526001600160a01b03878116808352602080840189815260008587018181526060870182815260018a018b55918a905295517f8a35acfbc15ff81a39ae7d344fd709f28e8600b4aa8c65c6b64bfe7fe36bd19b998902998a0180546001600160a01b0319169190961617909455517f8a35acfbc15ff81a39ae7d344fd709f28e8600b4aa8c65c6b64bfe7fe36bd19c88015592517f8a35acfbc15ff81a39ae7d344fd709f28e8600b4aa8c65c6b64bfe7fe36bd19d8701805460ff191691151591909117905590517f8a35acfbc15ff81a39ae7d344fd709f28e8600b4aa8c65c6b64bfe7fe36bd19e909501949094559051858152919291839133917fcd144288a078b7562351164feb1762115faca27f30827b4142f2bbe27166e320910160405180910390a45050505050565b6000806000806000600486815481106103c3576103c36109ff565b600091825260209091206004909102018054600182015460028301546003909301546001600160a01b039092169990985060ff9092169650945092505050565b6001600160a01b038216600090815260016020526040902054829060ff1661043d5760405162461bcd60e51b81526004016102649061091e565b600454829081106104605760405162461bcd60e51b815260040161026490610998565b8260048181548110610474576104746109ff565b600091825260209091206002600490920201015460ff16156104a85760405162461bcd60e51b815260040161026490610955565b6000600485815481106104bd576104bd6109ff565b906000526020600020906004020190506002548160030154101561052d5760405162461bcd60e51b815260206004820152602160248201527f4d756c746953696757616c6c65743a2063616e6e6f74206578656375746520746044820152600f60fb1b6064820152608401610264565b60028101805460ff1916600117905560405185906001600160a01b038816907f5445f318f4f5fcfb66592e68e0cc5822aa15664039bd5f0ffde24c5a8142b1ac90600090a3505050505050565b6001600160a01b038216600090815260016020526040902054829060ff166105b45760405162461bcd60e51b81526004016102649061091e565b600454829081106105d75760405162461bcd60e51b815260040161026490610998565b82600481815481106105eb576105eb6109ff565b600091825260209091206002600490920201015460ff161561061f5760405162461bcd60e51b815260040161026490610955565b60008481526003602090815260408083206001600160a01b03891684529091529020548590859060ff16156106a25760405162461bcd60e51b8152602060048201526024808201527f4d756c746953696757616c6c65743a20747820616c726561647920636f6e66696044820152631c9b595960e21b6064820152608401610264565b6000600487815481106106b7576106b76109ff565b9060005260206000209060040201905060018160030160008282546106dc91906109d9565b909155505060008781526003602090815260408083206001600160a01b038c168085529252808320805460ff191660011790555189927f5cbe105e36805f7820e291f799d5794ff948af2a5f664e580382defb6339004191a35050505050505050565b6004818154811061074f57600080fd5b600091825260209091206004909102018054600182015460028301546003909301546001600160a01b0390921693509160ff169084565b606060008054806020026020016040519081016040528092919081815260200182805480156107de57602002820191906000526020600020905b81546001600160a01b031681526001909101906020018083116107c0575b5050505050905090565b80356001600160a01b03811681146107ff57600080fd5b919050565b60006020828403121561081657600080fd5b61081f826107e8565b9392505050565b60008060006060848603121561083b57600080fd5b610844846107e8565b9250610852602085016107e8565b9150604084013590509250925092565b6000806040838503121561087557600080fd5b61087e836107e8565b946020939093013593505050565b60006020828403121561089e57600080fd5b5035919050565b600080604083850312156108b857600080fd5b823591506108c8602084016107e8565b90509250929050565b6020808252825182820181905260009190848201906040850190845b818110156109125783516001600160a01b0316835292840192918401916001016108ed565b50909695505050505050565b60208082526019908201527f4d756c746953696757616c6c65743a206e6f74206f776e657200000000000000604082015260600190565b60208082526023908201527f4d756c746953696757616c6c65743a20747820616c72656164792065786563756040820152621d195960ea1b606082015260800190565b60208082526021908201527f4d756c746953696757616c6c65743a20747820646f6573206e6f7420657869736040820152601d60fa1b606082015260800190565b600082198211156109fa57634e487b7160e01b600052601160045260246000fd5b500190565b634e487b7160e01b600052603260045260246000fdfea264697066735822122053d710f0d7fa67c50445e04d9694037571a90d20498b34cd06708549f2103ef364736f6c6343000807003360806040523480156200001157600080fd5b5060405162000c6938038062000c698339810160408190526200003491620001cb565b8051819083906200004d9060039060208501906200006e565b508051620000639060049060208401906200006e565b505050505062000288565b8280546200007c9062000235565b90600052602060002090601f016020900481019282620000a05760008555620000eb565b82601f10620000bb57805160ff1916838001178555620000eb565b82800160010185558215620000eb579182015b82811115620000eb578251825591602001919060010190620000ce565b50620000f9929150620000fd565b5090565b5b80821115620000f95760008155600101620000fe565b600082601f8301126200012657600080fd5b81516001600160401b038082111562000143576200014362000272565b604051601f8301601f19908116603f011681019082821181831017156200016e576200016e62000272565b816040528381526020925086838588010111156200018b57600080fd5b600091505b83821015620001af578582018301518183018401529082019062000190565b83821115620001c15760008385830101525b9695505050505050565b60008060408385031215620001df57600080fd5b82516001600160401b0380821115620001f757600080fd5b620002058683870162000114565b935060208501519150808211156200021c57600080fd5b506200022b8582860162000114565b9150509250929050565b600181811c908216806200024a57607f821691505b602082108114156200026c57634e487b7160e01b600052602260045260246000fd5b50919050565b634e487b7160e01b600052604160045260246000fd5b6109d180620002986000396000f3fe608060405234801561001057600080fd5b50600436106100b45760003560e01c806340c10f191161007157806340c10f191461014157806370a082311461015657806395d89b411461017f578063a457c2d714610187578063a9059cbb1461019a578063dd62ed3e146101ad57600080fd5b806306fdde03146100b9578063095ea7b3146100d757806318160ddd146100fa57806323b872dd1461010c578063313ce5671461011f578063395093511461012e575b600080fd5b6100c16101e6565b6040516100ce91906108e5565b60405180910390f35b6100ea6100e53660046108bb565b610278565b60405190151581526020016100ce565b6002545b6040519081526020016100ce565b6100ea61011a36600461087f565b61028e565b604051601281526020016100ce565b6100ea61013c3660046108bb565b61033d565b61015461014f3660046108bb565b610379565b005b6100fe61016436600461082a565b6001600160a01b031660009081526020819052604090205490565b6100c1610387565b6100ea6101953660046108bb565b610396565b6100ea6101a83660046108bb565b61042f565b6100fe6101bb36600461084c565b6001600160a01b03918216600090815260016020908152604080832093909416825291909152205490565b6060600380546101f590610960565b80601f016020809104026020016040519081016040528092919081815260200182805461022190610960565b801561026e5780601f106102435761010080835404028352916020019161026e565b820191906000526020600020905b81548152906001019060200180831161025157829003601f168201915b5050505050905090565b600061028533848461043c565b50600192915050565b600061029b848484610560565b6001600160a01b0384166000908152600160209081526040808320338452909152902054828110156103255760405162461bcd60e51b815260206004820152602860248201527f45524332303a207472616e7366657220616d6f756e74206578636565647320616044820152676c6c6f77616e636560c01b60648201526084015b60405180910390fd5b610332853385840361043c565b506001949350505050565b3360008181526001602090815260408083206001600160a01b0387168452909152812054909161028591859061037490869061093a565b61043c565b610383828261072f565b5050565b6060600480546101f590610960565b3360009081526001602090815260408083206001600160a01b0386168452909152812054828110156104185760405162461bcd60e51b815260206004820152602560248201527f45524332303a2064656372656173656420616c6c6f77616e63652062656c6f77604482015264207a65726f60d81b606482015260840161031c565b610425338585840361043c565b5060019392505050565b6000610285338484610560565b6001600160a01b03831661049e5760405162461bcd60e51b8152602060048201526024808201527f45524332303a20617070726f76652066726f6d20746865207a65726f206164646044820152637265737360e01b606482015260840161031c565b6001600160a01b0382166104ff5760405162461bcd60e51b815260206004820152602260248201527f45524332303a20617070726f766520746f20746865207a65726f206164647265604482015261737360f01b606482015260840161031c565b6001600160a01b0383811660008181526001602090815260408083209487168084529482529182902085905590518481527f8c5be1e5ebec7d5bd14f71427d1e84f3dd0314c0f7b2291e5b200ac8c7c3b925910160405180910390a3505050565b6001600160a01b0383166105c45760405162461bcd60e51b815260206004820152602560248201527f45524332303a207472616e736665722066726f6d20746865207a65726f206164604482015264647265737360d81b606482015260840161031c565b6001600160a01b0382166106265760405162461bcd60e51b815260206004820152602360248201527f45524332303a207472616e7366657220746f20746865207a65726f206164647260448201526265737360e81b606482015260840161031c565b6001600160a01b0383166000908152602081905260409020548181101561069e5760405162461bcd60e51b815260206004820152602660248201527f45524332303a207472616e7366657220616d6f756e7420657863656564732062604482015265616c616e636560d01b606482015260840161031c565b6001600160a01b038085166000908152602081905260408082208585039055918516815290812080548492906106d590849061093a565b92505081905550826001600160a01b0316846001600160a01b03167fddf252ad1be2c89b69c2b068fc378daa952ba7f163c4a11628f55a4df523b3ef8460405161072191815260200190565b60405180910390a350505050565b6001600160a01b0382166107855760405162461bcd60e51b815260206004820152601f60248201527f45524332303a206d696e7420746f20746865207a65726f206164647265737300604482015260640161031c565b8060026000828254610797919061093a565b90915550506001600160a01b038216600090815260208190526040812080548392906107c490849061093a565b90915550506040518181526001600160a01b038316906000907fddf252ad1be2c89b69c2b068fc378daa952ba7f163c4a11628f55a4df523b3ef9060200160405180910390a35050565b80356001600160a01b038116811461082557600080fd5b919050565b60006020828403121561083c57600080fd5b6108458261080e565b9392505050565b6000806040838503121561085f57600080fd5b6108688361080e565b91506108766020840161080e565b90509250929050565b60008060006060848603121561089457600080fd5b61089d8461080e565b92506108ab6020850161080e565b9150604084013590509250925092565b600080604083850312156108ce57600080fd5b6108d78361080e565b946020939093013593505050565b600060208083528351808285015260005b81811015610912578581018301518582016040015282016108f6565b81811115610924576000604083870101525b50601f01601f1916929092016040019392505050565b6000821982111561095b57634e487b7160e01b600052601160045260246000fd5b500190565b600181811c9082168061097457607f821691505b6020821081141561099557634e487b7160e01b600052602260045260246000fd5b5091905056fea2646970667358221220f218f5de52b6e8320f951cfb06ec224d0464e1f7ba5837d71f7580b791e59ee564736f6c63430008070033",
    "sourcePath": "/home/taranchik/Public/Workflow/deal-smart-contract/contracts/Deal.sol",
    "compiler": {
        "name": "solc",
        "version": "0.8.7+commit.e28d00a7"
    },
    "functionHashes": {
        "buyProduct(string)": "364e022f",
        "confirmProductSale(uint256)": "6b867085",
        "getComplaintInfo(uint256)": "ea6e738e",
        "getInvoiceInfo(uint256)": "9f42f748",
        "getProductInfo(string)": "57ba11b0",
        "makeComplaint(uint256,string)": "05e31184",
        "resolveComplaint(uint256,string,bool)": "3b2e2387"
    },
    "gasEstimates": {
        "creation": {
            "codeDepositCost": "1776000",
            "executionCost": "infinite",
            "totalCost": "infinite"
        },
        "external": {
            "buyProduct(string)": "infinite",
            "confirmProductSale(uint256)": "infinite",
            "getComplaintInfo(uint256)": "infinite",
            "getInvoiceInfo(uint256)": "infinite",
            "getProductInfo(string)": "infinite",
            "makeComplaint(uint256,string)": "infinite",
            "resolveComplaint(uint256,string,bool)": "infinite"
        },
        "internal": {
            "approveTransaction(struct Deal.Product storage pointer,address payable)": "infinite"
        }
    }
}