{
  "contractName": "Deal",
  "abi": [
    {
      "inputs": [],
      "stateMutability": "nonpayable",
      "type": "constructor"
    },
    {
      "inputs": [
        {
          "internalType": "uint256",
          "name": "invoiceIndex",
          "type": "uint256"
        }
      ],
      "name": "getInvoiceInfo",
      "outputs": [
        {
          "internalType": "address",
          "name": "",
          "type": "address"
        },
        {
          "internalType": "address payable",
          "name": "",
          "type": "address"
        },
        {
          "internalType": "string",
          "name": "",
          "type": "string"
        },
        {
          "internalType": "uint256",
          "name": "",
          "type": "uint256"
        }
      ],
      "stateMutability": "view",
      "type": "function",
      "constant": true
    },
    {
      "inputs": [
        {
          "internalType": "string",
          "name": "name",
          "type": "string"
        }
      ],
      "name": "getProductInfo",
      "outputs": [
        {
          "internalType": "uint256",
          "name": "",
          "type": "uint256"
        },
        {
          "internalType": "address",
          "name": "",
          "type": "address"
        },
        {
          "internalType": "bool",
          "name": "",
          "type": "bool"
        },
        {
          "internalType": "address",
          "name": "",
          "type": "address"
        }
      ],
      "stateMutability": "view",
      "type": "function",
      "constant": true
    },
    {
      "inputs": [
        {
          "internalType": "uint256",
          "name": "complaintIndex",
          "type": "uint256"
        }
      ],
      "name": "getComplaintInfo",
      "outputs": [
        {
          "components": [
            {
              "internalType": "address",
              "name": "buyer",
              "type": "address"
            },
            {
              "internalType": "address payable",
              "name": "seller",
              "type": "address"
            },
            {
              "internalType": "string",
              "name": "productName",
              "type": "string"
            },
            {
              "internalType": "uint256",
              "name": "price",
              "type": "uint256"
            },
            {
              "internalType": "uint256",
              "name": "date",
              "type": "uint256"
            }
          ],
          "internalType": "struct Deal.Invoice",
          "name": "",
          "type": "tuple"
        },
        {
          "internalType": "string",
          "name": "",
          "type": "string"
        },
        {
          "internalType": "string",
          "name": "",
          "type": "string"
        },
        {
          "internalType": "string",
          "name": "",
          "type": "string"
        },
        {
          "internalType": "bool",
          "name": "",
          "type": "bool"
        }
      ],
      "stateMutability": "view",
      "type": "function",
      "constant": true
    },
    {
      "inputs": [
        {
          "internalType": "string",
          "name": "productName",
          "type": "string"
        }
      ],
      "name": "buyProductWithEther",
      "outputs": [],
      "stateMutability": "payable",
      "type": "function",
      "payable": true
    },
    {
      "inputs": [
        {
          "internalType": "string",
          "name": "productName",
          "type": "string"
        },
        {
          "internalType": "address",
          "name": "tokenAddress",
          "type": "address"
        }
      ],
      "name": "buyProductWithERC20Token",
      "outputs": [],
      "stateMutability": "nonpayable",
      "type": "function"
    },
    {
      "inputs": [
        {
          "internalType": "uint256",
          "name": "invoiceIndex",
          "type": "uint256"
        },
        {
          "internalType": "string",
          "name": "comment",
          "type": "string"
        }
      ],
      "name": "makeComplaint",
      "outputs": [],
      "stateMutability": "nonpayable",
      "type": "function"
    },
    {
      "inputs": [
        {
          "internalType": "uint256",
          "name": "complaintIndex",
          "type": "uint256"
        },
        {
          "internalType": "string",
          "name": "comment",
          "type": "string"
        }
      ],
      "name": "resolveComplaint",
      "outputs": [],
      "stateMutability": "nonpayable",
      "type": "function"
    }
  ],
  "bytecode": "0x6080604052600060045560006005553480156200001b57600080fd5b5060405180608001604052806001815260200173a0b86991c6218b36c1d19d4a2e9eb0ce3606eb4873ffffffffffffffffffffffffffffffffffffffff1681526020016000151581526020013373ffffffffffffffffffffffffffffffffffffffff1681525060036040516200009190620005e8565b90815260200160405180910390206000820151816000015560208201518160010160006101000a81548173ffffffffffffffffffffffffffffffffffffffff021916908373ffffffffffffffffffffffffffffffffffffffff16021790555060408201518160010160146101000a81548160ff02191690831515021790555060608201518160020160006101000a81548173ffffffffffffffffffffffffffffffffffffffff021916908373ffffffffffffffffffffffffffffffffffffffff16021790555090505060405180608001604052806005815260200173dac17f958d2ee523a2206206994597c13d831ec773ffffffffffffffffffffffffffffffffffffffff1681526020016001151581526020013373ffffffffffffffffffffffffffffffffffffffff168152506003604051620001cf90620005d1565b90815260200160405180910390206000820151816000015560208201518160010160006101000a81548173ffffffffffffffffffffffffffffffffffffffff021916908373ffffffffffffffffffffffffffffffffffffffff16021790555060408201518160010160146101000a81548160ff02191690831515021790555060608201518160020160006101000a81548173ffffffffffffffffffffffffffffffffffffffff021916908373ffffffffffffffffffffffffffffffffffffffff1602179055509050506040518060800160405280600281526020017395ad61b0a150d79219dcf64e1e6cc01f0b64c4ce73ffffffffffffffffffffffffffffffffffffffff1681526020016000151581526020013373ffffffffffffffffffffffffffffffffffffffff1681525060036040516200030d90620005ba565b90815260200160405180910390206000820151816000015560208201518160010160006101000a81548173ffffffffffffffffffffffffffffffffffffffff021916908373ffffffffffffffffffffffffffffffffffffffff16021790555060408201518160010160146101000a81548160ff02191690831515021790555060608201518160020160006101000a81548173ffffffffffffffffffffffffffffffffffffffff021916908373ffffffffffffffffffffffffffffffffffffffff160217905550905050604051806080016040528060028152602001600073ffffffffffffffffffffffffffffffffffffffff1681526020016000151581526020013373ffffffffffffffffffffffffffffffffffffffff1681525060036040516200043890620005a3565b90815260200160405180910390206000820151816000015560208201518160010160006101000a81548173ffffffffffffffffffffffffffffffffffffffff021916908373ffffffffffffffffffffffffffffffffffffffff16021790555060408201518160010160146101000a81548160ff02191690831515021790555060608201518160020160006101000a81548173ffffffffffffffffffffffffffffffffffffffff021916908373ffffffffffffffffffffffffffffffffffffffff160217905550905050620006ae565b600062000516600a83620005ff565b915062000523826200060a565b600a82019050919050565b60006200053d600783620005ff565b91506200054a8262000633565b600782019050919050565b600062000564600383620005ff565b915062000571826200065c565b600382019050919050565b60006200058b600483620005ff565b9150620005988262000685565b600482019050919050565b6000620005b08262000507565b9150819050919050565b6000620005c7826200052e565b9150819050919050565b6000620005de8262000555565b9150819050919050565b6000620005f5826200057c565b9150819050919050565b600081905092915050565b7f536b617465626f61726400000000000000000000000000000000000000000000600082015250565b7f526f6c6c65727300000000000000000000000000000000000000000000000000600082015250565b7f4361720000000000000000000000000000000000000000000000000000000000600082015250565b7f42696b6500000000000000000000000000000000000000000000000000000000600082015250565b612c3280620006be6000396000f3fe6080604052600436106100705760003560e01c806344463ee21161004e57806344463ee2146100e357806357ba11b01461010c5780639f42f7481461014c578063ea6e738e1461018c57610070565b806305e31184146100755780631a88458e1461009e57806326019e7f146100ba575b600080fd5b34801561008157600080fd5b5061009c60048036038101906100979190611f34565b6101cd565b005b6100b860048036038101906100b39190611e35565b6106de565b005b3480156100c657600080fd5b506100e160048036038101906100dc9190611f34565b610c3c565b005b3480156100ef57600080fd5b5061010a60048036038101906101059190611e7e565b610ea0565b005b34801561011857600080fd5b50610133600480360381019061012e9190611e35565b6115f5565b604051610143949392919061254f565b60405180910390f35b34801561015857600080fd5b50610173600480360381019061016e9190611eda565b6116df565b60405161018394939291906122d4565b60405180910390f35b34801561019857600080fd5b506101b360048036038101906101ae9190611eda565b611860565b6040516101c49594939291906124e0565b60405180910390f35b6005548210610211576040517f08c379a0000000000000000000000000000000000000000000000000000000008152600401610208906123a0565b60405180910390fd5b3373ffffffffffffffffffffffffffffffffffffffff166002600084815260200190815260200160002060000160009054906101000a900473ffffffffffffffffffffffffffffffffffffffff1673ffffffffffffffffffffffffffffffffffffffff1614806102e257503373ffffffffffffffffffffffffffffffffffffffff166002600084815260200190815260200160002060010160009054906101000a900473ffffffffffffffffffffffffffffffffffffffff1673ffffffffffffffffffffffffffffffffffffffff16145b610321576040517f08c379a000000000000000000000000000000000000000000000000000000000815260040161031890612460565b60405180910390fd5b600060405180602001604052806000815250905060006040518060200160405280600081525090506002600085815260200190815260200160002060000160009054906101000a900473ffffffffffffffffffffffffffffffffffffffff1673ffffffffffffffffffffffffffffffffffffffff163373ffffffffffffffffffffffffffffffffffffffff1614156103bb578291506103bf565b8290505b6040518060a00160405280600260008781526020019081526020016000206040518060a00160405290816000820160009054906101000a900473ffffffffffffffffffffffffffffffffffffffff1673ffffffffffffffffffffffffffffffffffffffff1673ffffffffffffffffffffffffffffffffffffffff1681526020016001820160009054906101000a900473ffffffffffffffffffffffffffffffffffffffff1673ffffffffffffffffffffffffffffffffffffffff1673ffffffffffffffffffffffffffffffffffffffff1681526020016002820180546104a4906126f4565b80601f01602080910402602001604051908101604052809291908181526020018280546104d0906126f4565b801561051d5780601f106104f25761010080835404028352916020019161051d565b820191906000526020600020905b81548152906001019060200180831161050057829003601f168201915b505050505081526020016003820154815260200160048201548152505081526020018381526020018281526020016040518060200160405280600081525081526020016000151581525060016000600454815260200190815260200160002060008201518160000160008201518160000160006101000a81548173ffffffffffffffffffffffffffffffffffffffff021916908373ffffffffffffffffffffffffffffffffffffffff16021790555060208201518160010160006101000a81548173ffffffffffffffffffffffffffffffffffffffff021916908373ffffffffffffffffffffffffffffffffffffffff160217905550604082015181600201908051906020019061062f929190611c46565b50606082015181600301556080820151816004015550506020820151816005019080519060200190610662929190611c46565b50604082015181600601908051906020019061067f929190611c46565b50606082015181600701908051906020019061069c929190611c46565b5060808201518160080160006101000a81548160ff021916908315150217905550905050600460008154809291906106d390612757565b919050555050505050565b60006003826040516106f091906122a2565b9081526020016040518091039020600001541415610743576040517f08c379a000000000000000000000000000000000000000000000000000000000815260040161073a90612400565b60405180910390fd5b3373ffffffffffffffffffffffffffffffffffffffff1660008054906101000a900473ffffffffffffffffffffffffffffffffffffffff1673ffffffffffffffffffffffffffffffffffffffff1614156107d2576040517f08c379a00000000000000000000000000000000000000000000000000000000081526004016107c990612380565b60405180910390fd5b3373ffffffffffffffffffffffffffffffffffffffff166003826040516107f991906122a2565b908152602001604051809103902060020160009054906101000a900473ffffffffffffffffffffffffffffffffffffffff1673ffffffffffffffffffffffffffffffffffffffff161415610882576040517f08c379a0000000000000000000000000000000000000000000000000000000008152600401610879906123e0565b60405180910390fd5b3460038260405161089391906122a2565b908152602001604051809103902060000154146108e5576040517f08c379a00000000000000000000000000000000000000000000000000000000081526004016108dc906123c0565b60405180910390fd5b600073ffffffffffffffffffffffffffffffffffffffff1660038260405161090d91906122a2565b908152602001604051809103902060010160009054906101000a900473ffffffffffffffffffffffffffffffffffffffff1673ffffffffffffffffffffffffffffffffffffffff1614610995576040517f08c379a000000000000000000000000000000000000000000000000000000000815260040161098c90612420565b60405180910390fd5b6040518060a001604052803373ffffffffffffffffffffffffffffffffffffffff1681526020016003836040516109cc91906122a2565b908152602001604051809103902060020160009054906101000a900473ffffffffffffffffffffffffffffffffffffffff1673ffffffffffffffffffffffffffffffffffffffff168152602001828152602001600383604051610a2f91906122a2565b90815260200160405180910390206000015481526020014281525060026000600554815260200190815260200160002060008201518160000160006101000a81548173ffffffffffffffffffffffffffffffffffffffff021916908373ffffffffffffffffffffffffffffffffffffffff16021790555060208201518160010160006101000a81548173ffffffffffffffffffffffffffffffffffffffff021916908373ffffffffffffffffffffffffffffffffffffffff1602179055506040820151816002019080519060200190610b09929190611c46565b50606082015181600301556080820151816004015590505033600382604051610b3291906122a2565b908152602001604051809103902060020160006101000a81548173ffffffffffffffffffffffffffffffffffffffff021916908373ffffffffffffffffffffffffffffffffffffffff16021790555060026000600554815260200190815260200160002060010160009054906101000a900473ffffffffffffffffffffffffffffffffffffffff1673ffffffffffffffffffffffffffffffffffffffff166108fc600383604051610be391906122a2565b9081526020016040518091039020600001549081150290604051600060405180830381858888f19350505050158015610c20573d6000803e3d6000fd5b5060056000815480929190610c3490612757565b919050555050565b6004548210610c80576040517f08c379a0000000000000000000000000000000000000000000000000000000008152600401610c7790612480565b60405180910390fd5b3373ffffffffffffffffffffffffffffffffffffffff166001600084815260200190815260200160002060000160000160009054906101000a900473ffffffffffffffffffffffffffffffffffffffff1673ffffffffffffffffffffffffffffffffffffffff16141580610d5957503373ffffffffffffffffffffffffffffffffffffffff166001600084815260200190815260200160002060000160010160009054906101000a900473ffffffffffffffffffffffffffffffffffffffff1673ffffffffffffffffffffffffffffffffffffffff1614155b610d98576040517f08c379a0000000000000000000000000000000000000000000000000000000008152600401610d8f906124a0565b60405180910390fd5b600115156001600084815260200190815260200160002060080160009054906101000a900460ff1615151415610e03576040517f08c379a0000000000000000000000000000000000000000000000000000000008152600401610dfa906124c0565b60405180910390fd5b336000806101000a81548173ffffffffffffffffffffffffffffffffffffffff021916908373ffffffffffffffffffffffffffffffffffffffff16021790555080600160008481526020019081526020016000206007019080519060200190610e6d929190611c46565b50600180600084815260200190815260200160002060080160006101000a81548160ff0219169083151502179055505050565b6000600383604051610eb291906122a2565b9081526020016040518091039020600001541415610f05576040517f08c379a0000000000000000000000000000000000000000000000000000000008152600401610efc90612400565b60405180910390fd5b8073ffffffffffffffffffffffffffffffffffffffff16600383604051610f2c91906122a2565b908152602001604051809103902060010160009054906101000a900473ffffffffffffffffffffffffffffffffffffffff1673ffffffffffffffffffffffffffffffffffffffff1614610fb4576040517f08c379a0000000000000000000000000000000000000000000000000000000008152600401610fab90612440565b60405180910390fd5b3373ffffffffffffffffffffffffffffffffffffffff1660008054906101000a900473ffffffffffffffffffffffffffffffffffffffff1673ffffffffffffffffffffffffffffffffffffffff161415611043576040517f08c379a000000000000000000000000000000000000000000000000000000000815260040161103a90612380565b60405180910390fd5b3373ffffffffffffffffffffffffffffffffffffffff1660038360405161106a91906122a2565b908152602001604051809103902060020160009054906101000a900473ffffffffffffffffffffffffffffffffffffffff1673ffffffffffffffffffffffffffffffffffffffff1614156110f3576040517f08c379a00000000000000000000000000000000000000000000000000000000081526004016110ea906123e0565b60405180910390fd5b600081905060038360405161110891906122a2565b9081526020016040518091039020600001548173ffffffffffffffffffffffffffffffffffffffff166370a08231336040518263ffffffff1660e01b815260040161115391906122b9565b60206040518083038186803b15801561116b57600080fd5b505afa15801561117f573d6000803e3d6000fd5b505050506040513d601f19601f820116820180604052508101906111a39190611f07565b10156111e4576040517f08c379a00000000000000000000000000000000000000000000000000000000081526004016111db906123c0565b60405180910390fd5b6040518060a001604052803373ffffffffffffffffffffffffffffffffffffffff16815260200160038560405161121b91906122a2565b908152602001604051809103902060020160009054906101000a900473ffffffffffffffffffffffffffffffffffffffff1673ffffffffffffffffffffffffffffffffffffffff16815260200184815260200160038560405161127e91906122a2565b90815260200160405180910390206000015481526020014281525060026000600554815260200190815260200160002060008201518160000160006101000a81548173ffffffffffffffffffffffffffffffffffffffff021916908373ffffffffffffffffffffffffffffffffffffffff16021790555060208201518160010160006101000a81548173ffffffffffffffffffffffffffffffffffffffff021916908373ffffffffffffffffffffffffffffffffffffffff1602179055506040820151816002019080519060200190611358929190611c46565b5060608201518160030155608082015181600401559050503360038460405161138191906122a2565b908152602001604051809103902060020160006101000a81548173ffffffffffffffffffffffffffffffffffffffff021916908373ffffffffffffffffffffffffffffffffffffffff1602179055508073ffffffffffffffffffffffffffffffffffffffff1663095ea7b360026000600554815260200190815260200160002060000160009054906101000a900473ffffffffffffffffffffffffffffffffffffffff1660038660405161143591906122a2565b9081526020016040518091039020600001546040518363ffffffff1660e01b8152600401611464929190612357565b602060405180830381600087803b15801561147e57600080fd5b505af1158015611492573d6000803e3d6000fd5b505050506040513d601f19601f820116820180604052508101906114b69190611e08565b508073ffffffffffffffffffffffffffffffffffffffff166323b872dd60026000600554815260200190815260200160002060000160009054906101000a900473ffffffffffffffffffffffffffffffffffffffff1660026000600554815260200190815260200160002060010160009054906101000a900473ffffffffffffffffffffffffffffffffffffffff1660038760405161155591906122a2565b9081526020016040518091039020600001546040518463ffffffff1660e01b815260040161158593929190612320565b602060405180830381600087803b15801561159f57600080fd5b505af11580156115b3573d6000803e3d6000fd5b505050506040513d601f19601f820116820180604052508101906115d79190611e08565b50600560008154809291906115eb90612757565b9190505550505050565b60008060008060038560405161160b91906122a2565b90815260200160405180910390206000015460038660405161162d91906122a2565b908152602001604051809103902060010160009054906101000a900473ffffffffffffffffffffffffffffffffffffffff1660038760405161166f91906122a2565b908152602001604051809103902060010160149054906101000a900460ff1660038860405161169e91906122a2565b908152602001604051809103902060020160009054906101000a900473ffffffffffffffffffffffffffffffffffffffff1693509350935093509193509193565b60008060606000600554851061172a576040517f08c379a0000000000000000000000000000000000000000000000000000000008152600401611721906123a0565b60405180910390fd5b6002600086815260200190815260200160002060000160009054906101000a900473ffffffffffffffffffffffffffffffffffffffff166002600087815260200190815260200160002060010160009054906101000a900473ffffffffffffffffffffffffffffffffffffffff166002600088815260200190815260200160002060020160026000898152602001908152602001600020600301548180546117d1906126f4565b80601f01602080910402602001604051908101604052809291908181526020018280546117fd906126f4565b801561184a5780601f1061181f5761010080835404028352916020019161184a565b820191906000526020600020905b81548152906001019060200180831161182d57829003601f168201915b5050505050915093509350935093509193509193565b611868611ccc565b6060806060600060045486106118b3576040517f08c379a00000000000000000000000000000000000000000000000000000000081526004016118aa90612480565b60405180910390fd5b600160008781526020019081526020016000206000016001600088815260200190815260200160002060050160016000898152602001908152602001600020600601600160008a8152602001908152602001600020600701600160008b815260200190815260200160002060080160009054906101000a900460ff16846040518060a00160405290816000820160009054906101000a900473ffffffffffffffffffffffffffffffffffffffff1673ffffffffffffffffffffffffffffffffffffffff1673ffffffffffffffffffffffffffffffffffffffff1681526020016001820160009054906101000a900473ffffffffffffffffffffffffffffffffffffffff1673ffffffffffffffffffffffffffffffffffffffff1673ffffffffffffffffffffffffffffffffffffffff1681526020016002820180546119f7906126f4565b80601f0160208091040260200160405190810160405280929190818152602001828054611a23906126f4565b8015611a705780601f10611a4557610100808354040283529160200191611a70565b820191906000526020600020905b815481529060010190602001808311611a5357829003601f168201915b50505050508152602001600382015481526020016004820154815250509450838054611a9b906126f4565b80601f0160208091040260200160405190810160405280929190818152602001828054611ac7906126f4565b8015611b145780601f10611ae957610100808354040283529160200191611b14565b820191906000526020600020905b815481529060010190602001808311611af757829003601f168201915b50505050509350828054611b27906126f4565b80601f0160208091040260200160405190810160405280929190818152602001828054611b53906126f4565b8015611ba05780601f10611b7557610100808354040283529160200191611ba0565b820191906000526020600020905b815481529060010190602001808311611b8357829003601f168201915b50505050509250818054611bb3906126f4565b80601f0160208091040260200160405190810160405280929190818152602001828054611bdf906126f4565b8015611c2c5780601f10611c0157610100808354040283529160200191611c2c565b820191906000526020600020905b815481529060010190602001808311611c0f57829003601f168201915b505050505091509450945094509450945091939590929450565b828054611c52906126f4565b90600052602060002090601f016020900481019282611c745760008555611cbb565b82601f10611c8d57805160ff1916838001178555611cbb565b82800160010185558215611cbb579182015b82811115611cba578251825591602001919060010190611c9f565b5b509050611cc89190611d27565b5090565b6040518060a00160405280600073ffffffffffffffffffffffffffffffffffffffff168152602001600073ffffffffffffffffffffffffffffffffffffffff1681526020016060815260200160008152602001600081525090565b5b80821115611d40576000816000905550600101611d28565b5090565b6000611d57611d52846125b9565b612594565b905082815260208101848484011115611d7357611d72612832565b5b611d7e8482856126b2565b509392505050565b600081359050611d9581612bb7565b92915050565b600081519050611daa81612bce565b92915050565b600082601f830112611dc557611dc461282d565b5b8135611dd5848260208601611d44565b91505092915050565b600081359050611ded81612be5565b92915050565b600081519050611e0281612be5565b92915050565b600060208284031215611e1e57611e1d61283c565b5b6000611e2c84828501611d9b565b91505092915050565b600060208284031215611e4b57611e4a61283c565b5b600082013567ffffffffffffffff811115611e6957611e68612837565b5b611e7584828501611db0565b91505092915050565b60008060408385031215611e9557611e9461283c565b5b600083013567ffffffffffffffff811115611eb357611eb2612837565b5b611ebf85828601611db0565b9250506020611ed085828601611d86565b9150509250929050565b600060208284031215611ef057611eef61283c565b5b6000611efe84828501611dde565b91505092915050565b600060208284031215611f1d57611f1c61283c565b5b6000611f2b84828501611df3565b91505092915050565b60008060408385031215611f4b57611f4a61283c565b5b6000611f5985828601611dde565b925050602083013567ffffffffffffffff811115611f7a57611f79612837565b5b611f8685828601611db0565b9150509250929050565b611f998161267c565b82525050565b611fa881612634565b82525050565b611fb781612634565b82525050565b611fc681612622565b82525050565b611fd581612622565b82525050565b611fe481612646565b82525050565b6000611ff5826125ea565b611fff81856125f5565b935061200f8185602086016126c1565b61201881612841565b840191505092915050565b600061202e826125ea565b6120388185612606565b93506120488185602086016126c1565b61205181612841565b840191505092915050565b6000612067826125ea565b6120718185612617565b93506120818185602086016126c1565b80840191505092915050565b600061209a602283612606565b91506120a582612852565b604082019050919050565b60006120bd602283612606565b91506120c8826128a1565b604082019050919050565b60006120e0603783612606565b91506120eb826128f0565b604082019050919050565b6000612103602b83612606565b915061210e8261293f565b604082019050919050565b6000612126603283612606565b91506121318261298e565b604082019050919050565b6000612149602a83612606565b9150612154826129dd565b604082019050919050565b600061216c602983612606565b915061217782612a2c565b604082019050919050565b600061218f602e83612606565b915061219a82612a7b565b604082019050919050565b60006121b2602483612606565b91506121bd82612aca565b604082019050919050565b60006121d5602683612606565b91506121e082612b19565b604082019050919050565b60006121f8603183612606565b915061220382612b68565b604082019050919050565b600060a0830160008301516122266000860182611fbd565b5060208301516122396020860182611f9f565b50604083015184820360408601526122518282611fea565b91505060608301516122666060860182612284565b5060808301516122796080860182612284565b508091505092915050565b61228d81612672565b82525050565b61229c81612672565b82525050565b60006122ae828461205c565b915081905092915050565b60006020820190506122ce6000830184611fcc565b92915050565b60006080820190506122e96000830187611fcc565b6122f66020830186611fae565b81810360408301526123088185612023565b90506123176060830184612293565b95945050505050565b60006060820190506123356000830186611fcc565b6123426020830185611f90565b61234f6040830184612293565b949350505050565b600060408201905061236c6000830185611fcc565b6123796020830184612293565b9392505050565b600060208201905081810360008301526123998161208d565b9050919050565b600060208201905081810360008301526123b9816120b0565b9050919050565b600060208201905081810360008301526123d9816120d3565b9050919050565b600060208201905081810360008301526123f9816120f6565b9050919050565b6000602082019050818103600083015261241981612119565b9050919050565b600060208201905081810360008301526124398161213c565b9050919050565b600060208201905081810360008301526124598161215f565b9050919050565b6000602082019050818103600083015261247981612182565b9050919050565b60006020820190508181036000830152612499816121a5565b9050919050565b600060208201905081810360008301526124b9816121c8565b9050919050565b600060208201905081810360008301526124d9816121eb565b9050919050565b600060a08201905081810360008301526124fa818861220e565b9050818103602083015261250e8187612023565b905081810360408301526125228186612023565b905081810360608301526125368185612023565b90506125456080830184611fdb565b9695505050505050565b60006080820190506125646000830187612293565b6125716020830186611fcc565b61257e6040830185611fdb565b61258b6060830184611fcc565b95945050505050565b600061259e6125af565b90506125aa8282612726565b919050565b6000604051905090565b600067ffffffffffffffff8211156125d4576125d36127fe565b5b6125dd82612841565b9050602081019050919050565b600081519050919050565b600082825260208201905092915050565b600082825260208201905092915050565b600081905092915050565b600061262d82612652565b9050919050565b600061263f82612652565b9050919050565b60008115159050919050565b600073ffffffffffffffffffffffffffffffffffffffff82169050919050565b6000819050919050565b60006126878261268e565b9050919050565b6000612699826126a0565b9050919050565b60006126ab82612652565b9050919050565b82818337600083830152505050565b60005b838110156126df5780820151818401526020810190506126c4565b838111156126ee576000848401525b50505050565b6000600282049050600182168061270c57607f821691505b602082108114156127205761271f6127cf565b5b50919050565b61272f82612841565b810181811067ffffffffffffffff8211171561274e5761274d6127fe565b5b80604052505050565b600061276282612672565b91507fffffffffffffffffffffffffffffffffffffffffffffffffffffffffffffffff821415612795576127946127a0565b5b600182019050919050565b7f4e487b7100000000000000000000000000000000000000000000000000000000600052601160045260246000fd5b7f4e487b7100000000000000000000000000000000000000000000000000000000600052602260045260246000fd5b7f4e487b7100000000000000000000000000000000000000000000000000000000600052604160045260246000fd5b600080fd5b600080fd5b600080fd5b600080fd5b6000601f19601f8301169050919050565b7f5468652061726269747261746f722063616e27742062757920612070726f647560008201527f6374000000000000000000000000000000000000000000000000000000000000602082015250565b7f5468657265206973206e6f20696e766f69636520666f72207468697320696e6460008201527f6578000000000000000000000000000000000000000000000000000000000000602082015250565b7f54686572652061726520656e6f7567682066756e647320746f20636f7665722060008201527f74686520636f7374206f66207468652070726f64756374000000000000000000602082015250565b7f5468652070726f64756374206f776e65722063616e277420627579206869732060008201527f6f776e2070726f64756374000000000000000000000000000000000000000000602082015250565b7f5075726368617365206f662061206e6f6e2d6578697374656e742070726f647560008201527f6374206973206e6f7420706f737369626c650000000000000000000000000000602082015250565b7f5468652070726f647563742063616e206e6f742062652070727563686173656460008201527f20666f7220457468657200000000000000000000000000000000000000000000602082015250565b7f5468652070726f6475637420697320736f6c6420666f7220612064696666657260008201527f656e7420746f6b656e0000000000000000000000000000000000000000000000602082015250565b7f497420697320696d706f737369626c6520746f20636f6d706c61696e206e6f7460008201527f20796f75727320696e766f696365000000000000000000000000000000000000602082015250565b7f5468657265206973206e6f20636f6d706c61696e7420666f722074686973206960008201527f6e64657800000000000000000000000000000000000000000000000000000000602082015250565b7f4f6e6c792061726269747261746f722063616e207265736f6c766520636f6d7060008201527f6c61696e74730000000000000000000000000000000000000000000000000000602082015250565b7f4f6e6c7920756e7265736f6c76656420636f6d706c61696e747320697320706f60008201527f737369626c6520746f207265736f6c7665000000000000000000000000000000602082015250565b612bc081612622565b8114612bcb57600080fd5b50565b612bd781612646565b8114612be257600080fd5b50565b612bee81612672565b8114612bf957600080fd5b5056fea2646970667358221220c6c469568a4ab8605811273efb57eae19108ab0dfc2f71759dea5fd9d1aa34bd64736f6c63430008070033",
  "immutableReferences": {},
  "source": "// SPDX-License-Identifier: MIT\npragma solidity ^0.8.7;\npragma abicoder v2;\n\nimport \"@openzeppelin/contracts/token/ERC20/ERC20.sol\";\n\ncontract Deal {\n    address private arbitrator;\n    mapping(uint256 => Complaint) private complains;\n    mapping(uint256 => Invoice) private invoices;\n    mapping(string => Product) private products;\n    uint256 private complainsCount = 0;\n    uint256 private invoicesCount = 0;\n\n    constructor() {\n        products[\"Bike\"] = Product({\n            price: 1,\n            tokenAddress: 0xA0b86991c6218b36c1d19D4a2e9Eb0cE3606eB48,\n            isBroken: false,\n            productOwner: msg.sender\n        });\n        products[\"Car\"] = Product({\n            price: 5,\n            tokenAddress: 0xdAC17F958D2ee523a2206206994597C13D831ec7,\n            isBroken: true,\n            productOwner: msg.sender\n        });\n        products[\"Rollers\"] = Product({\n            price: 2,\n            tokenAddress: 0x95aD61b0a150d79219dCF64E1E6Cc01f0B64C4cE,\n            isBroken: false,\n            productOwner: msg.sender\n        });\n        products[\"Skateboard\"] = Product({\n            price: 2,\n            tokenAddress: address(0),\n            isBroken: false,\n            productOwner: msg.sender\n        });\n    }\n\n    struct Product {\n        uint256 price;\n        address tokenAddress;\n        bool isBroken;\n        address productOwner;\n    }\n\n    struct Invoice {\n        address buyer;\n        address payable seller;\n        string productName;\n        uint256 price;\n        uint256 date;\n    }\n\n    struct Complaint {\n        Invoice invoice;\n        string buyerComment;\n        string sellerComment;\n        string arbitratorComment;\n        bool isResolved;\n    }\n\n    function getInvoiceInfo(uint256 invoiceIndex)\n        public\n        view\n        returns (\n            address,\n            address payable,\n            string memory,\n            uint256\n        )\n    {\n        require(\n            invoiceIndex < invoicesCount,\n            \"There is no invoice for this index\"\n        );\n\n        return (\n            invoices[invoiceIndex].buyer,\n            invoices[invoiceIndex].seller,\n            invoices[invoiceIndex].productName,\n            invoices[invoiceIndex].price\n        );\n    }\n\n    function getProductInfo(string memory name)\n        public\n        view\n        returns (\n            uint256,\n            address,\n            bool,\n            address\n        )\n    {\n        return (\n            products[name].price,\n            products[name].tokenAddress,\n            products[name].isBroken,\n            products[name].productOwner\n        );\n    }\n\n    function getComplaintInfo(uint256 complaintIndex)\n        public\n        view\n        returns (\n            Invoice memory,\n            string memory,\n            string memory,\n            string memory,\n            bool\n        )\n    {\n        require(\n            complaintIndex < complainsCount,\n            \"There is no complaint for this index\"\n        );\n\n        return (\n            complains[complaintIndex].invoice,\n            complains[complaintIndex].buyerComment,\n            complains[complaintIndex].sellerComment,\n            complains[complaintIndex].arbitratorComment,\n            complains[complaintIndex].isResolved\n        );\n    }\n\n    //   function exchangeOneEtherToERC20(address tokenAddress) public payable {\n    //       require(msg.value == 1 ether, \"Should be sent for exchanging exactly 1 ether\");\n\n    //       ERC20 token = ERC20(tokenAddress);\n\n    //       token.approve(msg.sender, 1);\n    //       token.transfer(msg.sender, 1);\n    //     }\n\n    // accepts Ether\n    function buyProductWithEther(string memory productName) public payable {\n        require(\n            products[productName].price != 0,\n            \"Purchase of a non-existent product is not possible\"\n        );\n\n        require(arbitrator != msg.sender, \"The arbitrator can't buy a product\");\n\n        require(\n            products[productName].productOwner != msg.sender,\n            \"The product owner can't buy his own product\"\n        );\n\n        require(\n            products[productName].price == msg.value,\n            \"There are enough funds to cover the cost of the product\"\n        );\n\n        require(\n            products[productName].tokenAddress == address(0),\n            \"The product can not be pruchased for Ether\"\n        );\n\n        invoices[invoicesCount] = Invoice({\n            buyer: msg.sender,\n            seller: payable(products[productName].productOwner),\n            productName: productName,\n            price: products[productName].price,\n            date: block.timestamp\n        });\n\n        products[productName].productOwner = msg.sender;\n        invoices[invoicesCount].seller.transfer(products[productName].price); // transfer eather from buyer to seller\n        invoicesCount++;\n    }\n\n    // accepts ERC20 tokens\n    function buyProductWithERC20Token(\n        string memory productName,\n        address tokenAddress\n    ) public {\n        require(\n            products[productName].price != 0,\n            \"Purchase of a non-existent product is not possible\"\n        );\n\n        require(\n            products[productName].tokenAddress == tokenAddress,\n            \"The product is sold for a different token\"\n        );\n\n        require(arbitrator != msg.sender, \"The arbitrator can't buy a product\");\n\n        require(\n            products[productName].productOwner != msg.sender,\n            \"The product owner can't buy his own product\"\n        );\n\n        ERC20 token = ERC20(tokenAddress);\n\n        require(\n            token.balanceOf(msg.sender) >= products[productName].price,\n            \"There are enough funds to cover the cost of the product\"\n        );\n\n        invoices[invoicesCount] = Invoice({\n            buyer: msg.sender,\n            seller: payable(products[productName].productOwner),\n            productName: productName,\n            price: products[productName].price,\n            date: block.timestamp\n        });\n\n        products[productName].productOwner = msg.sender;\n        token.approve(\n            invoices[invoicesCount].buyer,\n            products[productName].price\n        );\n        token.transferFrom(\n            invoices[invoicesCount].buyer,\n            invoices[invoicesCount].seller,\n            products[productName].price\n        ); // transfer eather from buyer to seller\n        invoicesCount++;\n    }\n\n    function makeComplaint(uint256 invoiceIndex, string memory comment) public {\n        require(\n            invoiceIndex < invoicesCount,\n            \"There is no invoice for this index\"\n        );\n\n        require(\n            invoices[invoiceIndex].buyer == msg.sender ||\n                invoices[invoiceIndex].seller == msg.sender,\n            \"It is impossible to complain not yours invoice\"\n        );\n\n        string memory buyerComment = \"\";\n        string memory sellerComment = \"\";\n\n        if (msg.sender == invoices[invoiceIndex].buyer) {\n            buyerComment = comment;\n        } else {\n            sellerComment = comment;\n        }\n\n        complains[complainsCount] = Complaint({\n            invoice: invoices[invoiceIndex],\n            buyerComment: buyerComment,\n            sellerComment: sellerComment,\n            arbitratorComment: \"\",\n            isResolved: false\n        });\n\n        complainsCount++;\n    }\n\n    function resolveComplaint(uint256 complaintIndex, string memory comment)\n        public\n    {\n        require(\n            complaintIndex < complainsCount,\n            \"There is no complaint for this index\"\n        );\n\n        require(\n            complains[complaintIndex].invoice.buyer != msg.sender ||\n                complains[complaintIndex].invoice.seller != msg.sender,\n            \"Only arbitrator can resolve complaints\"\n        );\n\n        require(\n            complains[complaintIndex].isResolved != true,\n            \"Only unresolved complaints is possible to resolve\"\n        );\n\n        arbitrator = msg.sender;\n\n        complains[complaintIndex].arbitratorComment = comment;\n        complains[complaintIndex].isResolved = true;\n    }\n}\n",
  "sourcePath": "/home/taranchik/Public/Workflow/deal-smart-contract/contracts/Deal.sol",
  "compiler": {
    "name": "solc",
    "version": "0.8.7+commit.e28d00a7.Emscripten.clang"
  },
  "schemaVersion": "3.4.3",
  "updatedAt": "2021-09-11T12:11:47.466Z",
  "networkType": "ethereum",
  "devdoc": {
    "kind": "dev",
    "methods": {},
    "version": 1
  },
  "userdoc": {
    "kind": "user",
    "methods": {},
    "version": 1
  }
}