{
  "contractName": "Deal",
  "abi": [
    {
      "inputs": [
        {
          "internalType": "address[]",
          "name": "_owners",
          "type": "address[]"
        }
      ],
      "stateMutability": "nonpayable",
      "type": "constructor"
    },
    {
      "anonymous": false,
      "inputs": [
        {
          "indexed": false,
          "internalType": "address payable",
          "name": "recipient",
          "type": "address"
        },
        {
          "indexed": false,
          "internalType": "uint256",
          "name": "amount",
          "type": "uint256"
        }
      ],
      "name": "ApproveTransaction",
      "type": "event"
    },
    {
      "inputs": [
        {
          "internalType": "uint256",
          "name": "invoiceIndex",
          "type": "uint256"
        }
      ],
      "name": "getInvoiceInfo",
      "outputs": [
        {
          "internalType": "address",
          "name": "",
          "type": "address"
        },
        {
          "internalType": "address payable",
          "name": "",
          "type": "address"
        },
        {
          "internalType": "string",
          "name": "",
          "type": "string"
        },
        {
          "internalType": "uint256",
          "name": "",
          "type": "uint256"
        },
        {
          "internalType": "uint256",
          "name": "",
          "type": "uint256"
        }
      ],
      "stateMutability": "view",
      "type": "function",
      "constant": true
    },
    {
      "inputs": [
        {
          "internalType": "string",
          "name": "name",
          "type": "string"
        }
      ],
      "name": "getProductInfo",
      "outputs": [
        {
          "internalType": "uint256",
          "name": "",
          "type": "uint256"
        },
        {
          "internalType": "string",
          "name": "",
          "type": "string"
        },
        {
          "internalType": "bool",
          "name": "",
          "type": "bool"
        },
        {
          "internalType": "address",
          "name": "",
          "type": "address"
        }
      ],
      "stateMutability": "view",
      "type": "function",
      "constant": true
    },
    {
      "inputs": [
        {
          "internalType": "uint256",
          "name": "complaintIndex",
          "type": "uint256"
        }
      ],
      "name": "getComplaintInfo",
      "outputs": [
        {
          "components": [
            {
              "internalType": "address payable",
              "name": "buyer",
              "type": "address"
            },
            {
              "internalType": "address payable",
              "name": "seller",
              "type": "address"
            },
            {
              "internalType": "string",
              "name": "productName",
              "type": "string"
            },
            {
              "internalType": "uint256",
              "name": "price",
              "type": "uint256"
            },
            {
              "internalType": "uint256",
              "name": "date",
              "type": "uint256"
            },
            {
              "internalType": "uint256",
              "name": "transactionIndex",
              "type": "uint256"
            },
            {
              "internalType": "bool",
              "name": "isConfirmed",
              "type": "bool"
            }
          ],
          "internalType": "struct Deal.Invoice",
          "name": "",
          "type": "tuple"
        },
        {
          "internalType": "string",
          "name": "",
          "type": "string"
        },
        {
          "internalType": "string",
          "name": "",
          "type": "string"
        },
        {
          "internalType": "string",
          "name": "",
          "type": "string"
        },
        {
          "internalType": "bool",
          "name": "",
          "type": "bool"
        }
      ],
      "stateMutability": "view",
      "type": "function",
      "constant": true
    },
    {
      "inputs": [
        {
          "internalType": "string",
          "name": "productName",
          "type": "string"
        }
      ],
      "name": "buyProduct",
      "outputs": [],
      "stateMutability": "payable",
      "type": "function",
      "payable": true
    },
    {
      "inputs": [
        {
          "internalType": "uint256",
          "name": "invoiceIndex",
          "type": "uint256"
        }
      ],
      "name": "confirmProductSale",
      "outputs": [],
      "stateMutability": "nonpayable",
      "type": "function"
    },
    {
      "inputs": [
        {
          "internalType": "uint256",
          "name": "invoiceIndex",
          "type": "uint256"
        },
        {
          "internalType": "string",
          "name": "comment",
          "type": "string"
        }
      ],
      "name": "makeComplaint",
      "outputs": [],
      "stateMutability": "nonpayable",
      "type": "function"
    },
    {
      "inputs": [
        {
          "internalType": "uint256",
          "name": "complaintIndex",
          "type": "uint256"
        },
        {
          "internalType": "string",
          "name": "comment",
          "type": "string"
        },
        {
          "internalType": "bool",
          "name": "acceptPayment",
          "type": "bool"
        }
      ],
      "name": "resolveComplaint",
      "outputs": [],
      "stateMutability": "payable",
      "type": "function",
      "payable": true
    }
  ],
  "bytecode": "0x6080604052600060065560006007553480156200001b57600080fd5b5060405162005038380380620050388339810160408190526200003e9162000a8c565b8051600314620000d4576040517f08c379a000000000000000000000000000000000000000000000000000000000815260206004820152603660248201527f436f6e74726163742061636365707473206f6e6c792033206f776e657273206660448201527f6f7220746865204d756c74697369672077616c6c657400000000000000000000606482015260840160405180910390fd5b806002604051620000e59062000a53565b620000f292919062000b65565b604051809103906000f0801580156200010f573d6000803e3d6000fd5b506000806101000a815481600160a060020a030219169083600160a060020a0316021790555060405180604001604052806040516200014e9062000a61565b60408082526004908201527f555344430000000000000000000000000000000000000000000000000000000060608201526080602082018190526008908201527f55534420636f696e00000000000000000000000000000000000000000000000060a082015260c001604051809103906000f080158015620001d4573d6000803e3d6000fd5b50600160a060020a0316815260006020909101526040517f5553444300000000000000000000000000000000000000000000000000000000815260059060040190815260408051918290036020908101832084518154959092015115157401000000000000000000000000000000000000000002600160a860020a0319909516600160a060020a039092169190911793909317909255808201918290529081906200027f9062000a61565b604080825260039082018190527f444149000000000000000000000000000000000000000000000000000000000060608301526080602083018190528201527f446169000000000000000000000000000000000000000000000000000000000060a082015260c001604051809103906000f08015801562000304573d6000803e3d6000fd5b50600160a060020a0316815260006020909101526040517f4441490000000000000000000000000000000000000000000000000000000000815260059060030190815260408051918290036020908101832084518154959092015115157401000000000000000000000000000000000000000002600160a860020a0319909516600160a060020a03909216919091179390931790925580820191829052908190620003af9062000a61565b60408082526004908201527f4c494e4b0000000000000000000000000000000000000000000000000000000060608201526080602082018190526009908201527f436861696e6c696e6b000000000000000000000000000000000000000000000060a082015260c001604051809103906000f08015801562000435573d6000803e3d6000fd5b50600160a060020a0316815260006020909101526040517f4c494e4b00000000000000000000000000000000000000000000000000000000815260059060040190815260408051918290036020908101832084518154959092015115157401000000000000000000000000000000000000000002600160a860020a0319909516600160a060020a03909216919091179390931790925580820191829052908190620004e09062000a61565b60408082526003908201527f455448000000000000000000000000000000000000000000000000000000000060608201526080602082018190526008908201527f457468657265756d00000000000000000000000000000000000000000000000060a082015260c001604051809103906000f08015801562000566573d6000803e3d6000fd5b50600160a060020a0316815260006020909101526040517f45544800000000000000000000000000000000000000000000000000000000008152600590600301908152604080519182900360209081018320845181549583015115157401000000000000000000000000000000000000000002600160a860020a0319909616600160a060020a0390911617949094179093556080820181526001825251909182019060059062000639907f5553444300000000000000000000000000000000000000000000000000000000815260040190565b908152604080516020928190038301902054600160a060020a031683526000918301919091523391810191909152517f42696b65000000000000000000000000000000000000000000000000000000008152600490810190815260408051918290036020908101832084518155848201516001820180548786015115157401000000000000000000000000000000000000000002600160a860020a0319909116600160a060020a03938416171790556060909501516002909101805491909516600160a060020a031991909116179093556080820181526005808352905191928301916200074a907f4441490000000000000000000000000000000000000000000000000000000000815260030190565b908152604080516020928190038301902054600160a060020a031683526001918301919091523391810191909152517f4361720000000000000000000000000000000000000000000000000000000000815260049060030190815260408051918290036020908101832084518155848201516001820180548786015115157401000000000000000000000000000000000000000002600160a860020a0319909116600160a060020a03938416171790556060909501516002918201805491909616600160a060020a031991909116179094556080830182529282525190918201906005906200085c907f4c494e4b00000000000000000000000000000000000000000000000000000000815260040190565b908152604080516020928190038301902054600160a060020a031683526000918301919091523391810191909152517f526f6c6c65727300000000000000000000000000000000000000000000000000815260049060070190815260408051918290036020908101832084518155848201516001820180548786015115157401000000000000000000000000000000000000000002600160a860020a0319909116600160a060020a03938416171790556060909501516002909101805491909516600160a060020a03199190911617909355608082018152671bc16d674ec80000825251909182019060059062000976907f4554480000000000000000000000000000000000000000000000000000000000815260030190565b908152604080516020928190038301902054600160a060020a031683526000918301919091523391810191909152517f536b617465626f617264000000000000000000000000000000000000000000008152600490600a019081526040805191829003602090810190922083518155918301516001830180549285015115157401000000000000000000000000000000000000000002600160a860020a0319909316600160a060020a0392831617929092179091556060909201516002909101805491909216600160a060020a0319919091161790555062000be7565b610fd3806200319183390190565b610ed4806200416483390190565b8051600160a060020a038116811462000a8757600080fd5b919050565b6000602080838503121562000aa057600080fd5b825167ffffffffffffffff8082111562000ab957600080fd5b818501915085601f83011262000ace57600080fd5b81518181111562000ae35762000ae362000bb8565b838102604051601f19603f8301168101818110858211171562000b0a5762000b0a62000bb8565b604052828152858101935084860182860187018a101562000b2a57600080fd5b600095505b8386101562000b585762000b438162000a6f565b85526001959095019493860193860162000b2f565b5098975050505050505050565b604080825283519082018190526000906020906060840190828701845b8281101562000ba9578151600160a060020a03168452928401929084019060010162000b82565b50505092019290925292915050565b7f4e487b7100000000000000000000000000000000000000000000000000000000600052604160045260246000fd5b61259a8062000bf76000396000f3fe60806040526004361061008d576000357c01000000000000000000000000000000000000000000000000000000009004806357ba11b01161006b57806357ba11b0146100da5780636b867085146101135780639f42f74814610133578063ea6e738e1461016457600080fd5b806305e3118414610092578063364e022f146100b45780633b2e2387146100c7575b600080fd5b34801561009e57600080fd5b506100b26100ad3660046120a1565b610195565b005b6100b26100c2366004611fd4565b610517565b6100b26100d53660046120e8565b610f28565b3480156100e657600080fd5b506100fa6100f5366004611fd4565b6112cb565b60405161010a94939291906123e6565b60405180910390f35b34801561011f57600080fd5b506100b261012e366004612088565b611422565b34801561013f57600080fd5b5061015361014e366004612088565b6117dd565b60405161010a95949392919061222a565b34801561017057600080fd5b5061018461017f366004612088565b6118e1565b60405161010a959493929190612324565b60075482106101c25760405160e560020a62461bcd0281526004016101b99061226a565b60405180910390fd5b600082815260036020526040902054600160a060020a03163314806102005750600082815260036020526040902060010154600160a060020a031633145b6102755760405160e560020a62461bcd02815260206004820152602e60248201527f497420697320696d706f737369626c6520746f20636f6d706c61696e206e6f7460448201527f20796f75727320696e766f69636500000000000000000000000000000000000060648201526084016101b9565b604080516020808201835260008083528351808301855281815286825260039092529290922054909190600160a060020a03163314156102b7578291506102ba565b50815b604080516000868152600360205282902061018082019092528154600160a060020a0390811660a08301908152600184015490911660c083015260028301805492938493909160e085019161030e906124c8565b80601f016020809104026020016040519081016040528092919081815260200182805461033a906124c8565b80156103875780601f1061035c57610100808354040283529160200191610387565b820191906000526020600020905b81548152906001019060200180831161036a57829003601f168201915b505050918352505060038201546020808301919091526004830154604080840191909152600584015460608085019190915260069485015460ff161515608094850152948652858201899052858101889052805180830182526000808252958701529490910183905290548252600280825291839020845180518254600160a060020a0391821673ffffffffffffffffffffffffffffffffffffffff1991821617845582850151600185018054919093169116179055938401518051919493859361045793918501920190611e6c565b50606082015160038201556080820151600482015560a0820151600582015560c0909101516006909101805460ff191691151591909117905560208281015180516104a89260078501920190611e6c565b50604082015180516104c4916008840191602090910190611e6c565b50606082015180516104e0916009840191602090910190611e6c565b5060809190910151600a909101805460ff19169115159190911790556006805490600061050c83612506565b919050555050505050565b600481604051610527919061216f565b908152604051908190036020019020546105ac5760405160e560020a62461bcd02815260206004820152603260248201527f5075726368617365206f662061206e6f6e2d6578697374656e742070726f647560448201527f6374206973206e6f7420706f737369626c65000000000000000000000000000060648201526084016101b9565b600154600160a060020a03163314156106305760405160e560020a62461bcd02815260206004820152602260248201527f5468652061726269747261746f722063616e27742062757920612070726f647560448201527f637400000000000000000000000000000000000000000000000000000000000060648201526084016101b9565b33600160a060020a031660048260405161064a919061216f565b90815260405190819003602001902060020154600160a060020a031614156106dd5760405160e560020a62461bcd02815260206004820152602b60248201527f5468652070726f64756374206f776e65722063616e277420627579206869732060448201527f6f776e2070726f6475637400000000000000000000000000000000000000000060648201526084016101b9565b6040518060e0016040528033600160a060020a03168152602001600483604051610707919061216f565b908152604080516020928190038301902060020154600160a060020a03168352908201849052805191019060049061074090859061216f565b908152604080519182900360209081019092205483524283830152600754838201819052600060609094018490528352600382529182902083518154600160a060020a0391821673ffffffffffffffffffffffffffffffffffffffff19918216178355858401516001840180549190931691161790559183015180516107cc9260028501920190611e6c565b50606082015181600301556080820151816004015560a0820151816005015560c08201518160060160006101000a81548160ff0219169083151502179055509050506000600482604051610820919061216f565b90815260408051918290036020018220600101547f95d89b410000000000000000000000000000000000000000000000000000000083529051600160a060020a03909116916395d89b41916004808301926000929190829003018186803b15801561088a57600080fd5b505afa15801561089e573d6000803e3d6000fd5b505050506040513d6000823e601f3d908101601f191682016040526108c69190810190612011565b6040517f45544800000000000000000000000000000000000000000000000000000000006020820152909150602301604051602081830303815290604052805190602001208160405160200161091c919061216f565b604051602081830303815290604052805190602001201415610b275734600483604051610949919061216f565b90815260405190819003602001902054146109f55760405160e560020a62461bcd02815260206004820152604360248201527f546865207061696420616d6f756e74206f66204574686572206973206469666660448201527f6572656e74207468616e20746865207072696365206f66207468652070726f6460648201527f7563740000000000000000000000000000000000000000000000000000000000608482015260a4016101b9565b60008054600754825260036020819052604092839020600181015491015492517f27782212000000000000000000000000000000000000000000000000000000008152336004820152600160a060020a03918216602482015260448101939093521690632778221290606401600060405180830381600087803b158015610a7b57600080fd5b505af1158015610a8f573d6000803e3d6000fd5b5050600080546007548252600360205260409182902060050154915160e060020a63887e7be50281523360048201526024810192909252600160a060020a0316925063887e7be59150604401600060405180830381600087803b158015610af557600080fd5b505af1158015610b09573d6000803e3d6000fd5b505060078054925090506000610b1e83612506565b91905055505050565b600581604051610b37919061216f565b9081526040519081900360200190205460ff740100000000000000000000000000000000000000009091041615610bd95760405160e560020a62461bcd02815260206004820152603460248201527f455243323020546f6b656e20666f7220746869732070726f647563742068617360448201527f206265656e20616c7265616479206d696e74656400000000000000000000000060648201526084016101b9565b34600483604051610bea919061216f565b90815260405190819003602001902054610c0c90670de0b6b3a7640000612479565b14610cce5760405160e560020a62461bcd02815260206004820152606d60248201527f546f206d616b652061206465706f73697420666f72207468652070726f64756360448201527f742c20796f75206e65656420746f2070617920746865207072696365206f662060648201527f746f6b656e7320696e207468652045746865722c20776865726520746865207260848201527f617465206973203120746f20310000000000000000000000000000000000000060a482015260c4016101b9565b60008054600754825260036020819052604092839020600181015491015492517f27782212000000000000000000000000000000000000000000000000000000008152336004820152600160a060020a03918216602482015260448101939093521690632778221290606401600060405180830381600087803b158015610d5457600080fd5b505af1158015610d68573d6000803e3d6000fd5b5050600080546007548252600360205260409182902060050154915160e060020a63887e7be50281523360048201526024810192909252600160a060020a0316925063887e7be59150604401600060405180830381600087803b158015610dce57600080fd5b505af1158015610de2573d6000803e3d6000fd5b505060078054925090506000610df783612506565b9190505550600581604051610e0c919061216f565b90815260405190819003602001812054600160a060020a0316906340c10f19903090600490610e3c90879061216f565b908152604051908190036020018120547c010000000000000000000000000000000000000000000000000000000063ffffffff8516028252610e959291600401600160a060020a03929092168252602082015260400190565b600060405180830381600087803b158015610eaf57600080fd5b505af1158015610ec3573d6000803e3d6000fd5b505050506001600582604051610ed9919061216f565b9081526040519081900360200190208054911515740100000000000000000000000000000000000000000274ff0000000000000000000000000000000000000000199092169190911790555050565b6006548310610f4c5760405160e560020a62461bcd0281526004016101b9906122c7565b600083815260026020526040902054600160a060020a0316331415610fb65760405160e560020a62461bcd02815260206004820181905260248201527f42757965722063616e206e6f74207265736f6c766520636f6d706c61696e747360448201526064016101b9565b600083815260026020526040902060010154600160a060020a03163314156110495760405160e560020a62461bcd02815260206004820152602160248201527f53656c6c65722063616e206e6f74207265736f6c766520636f6d706c61696e7460448201527f730000000000000000000000000000000000000000000000000000000000000060648201526084016101b9565b6000838152600260205260409020600a015460ff161515600114156110d95760405160e560020a62461bcd02815260206004820152603160248201527f4f6e6c7920756e7265736f6c76656420636f6d706c61696e747320697320706f60448201527f737369626c6520746f207265736f6c766500000000000000000000000000000060648201526084016101b9565b6001805473ffffffffffffffffffffffffffffffffffffffff1916331790556000838152600260205260409020811561124f5760008054858252600260205260409182902060050154915160e060020a63887e7be50281523360048201526024810192909252600160a060020a03169063887e7be590604401600060405180830381600087803b15801561116c57600080fd5b505af1158015611180573d6000803e3d6000fd5b50506000805487825260026020526040918290206005015491517f683ae0830000000000000000000000000000000000000000000000000000000081523360048201526024810192909252600160a060020a0316925063683ae0839150604401600060405180830381600087803b1580156111fa57600080fd5b505af115801561120e573d6000803e3d6000fd5b5050505061124a600482600201604051611228919061218b565b9081526040519081900360200190206001830154600160a060020a0316611c34565b611284565b611284600482600201604051611265919061218b565b9081526040519081900360200190208254600160a060020a0316611c34565b600084815260026020908152604090912084516112a992600990920191860190611e6c565b505050600091825250600260205260409020600a01805460ff19166001179055565b600060606000806004856040516112e2919061216f565b908152604051908190036020018120549060049061130190889061216f565b90815260408051918290036020018220600101547f06fdde030000000000000000000000000000000000000000000000000000000083529051600160a060020a03909116916306fdde03916004808301926000929190829003018186803b15801561136b57600080fd5b505afa15801561137f573d6000803e3d6000fd5b505050506040513d6000823e601f3d908101601f191682016040526113a79190810190612011565b6004876040516113b7919061216f565b9081526040519081900360200181206001015460ff7401000000000000000000000000000000000000000090910416906004906113f5908a9061216f565b908152604051908190036020019020600201549296509094509250600160a060020a031690509193509193565b600081815260036020526040902060010154600160a060020a031633146114da5760405160e560020a62461bcd02815260206004820152605360248201527f496e206f7264657220746f20636f6e6669726d207468652070726f647563742060448201527f73616c652c206974206973206e656365737361727920746f206265206120736560648201527f6c6c6572206f66207468652070726f6475637400000000000000000000000000608482015260a4016101b9565b60008054828252600360205260409182902060050154915160e060020a63887e7be50281523360048201526024810192909252600160a060020a03169063887e7be590604401600060405180830381600087803b15801561153a57600080fd5b505af115801561154e573d6000803e3d6000fd5b50506000805484825260036020526040918290206005015491517f683ae0830000000000000000000000000000000000000000000000000000000081523360048201526024810192909252600160a060020a0316925063683ae0839150604401600060405180830381600087803b1580156115c857600080fd5b505af11580156115dc573d6000803e3d6000fd5b505060008054848252600360205260408083206005015490517f33ea3dc80000000000000000000000000000000000000000000000000000000081526004810191909152919350600160a060020a031691506333ea3dc89060240160806040518083038186803b15801561164f57600080fd5b505afa158015611663573d6000803e3d6000fd5b505050506040513d601f19601f820116820180604052508101906116879190611f5b565b5092505050806117025760405160e560020a62461bcd02815260206004820152603c60248201527f546865207472616e73616374696f6e206973206e6f7420636f6e6669726d656460448201527f206279206174206c656173742074776f20706572736f6e73207965740000000060648201526084016101b9565b61175960046003600085815260200190815260200160002060020160405161172a919061218b565b908152604080516020928190038301902060008681526003909352912060010154600160a060020a0316611c34565b6000828152600360205260409081902060068101805460ff1916600117905580549151600160a060020a039092169160049161179a9160029091019061218b565b9081526040519081900360200190206002018054600160a060020a039290921673ffffffffffffffffffffffffffffffffffffffff199092169190911790555050565b600080606060008060075486106118095760405160e560020a62461bcd0281526004016101b99061226a565b60008681526003602081905260409091208054600182015492820154600483015460029093018054600160a060020a0393841695909316939092839061184e906124c8565b80601f016020809104026020016040519081016040528092919081815260200182805461187a906124c8565b80156118c75780601f1061189c576101008083540402835291602001916118c7565b820191906000526020600020905b8154815290600101906020018083116118aa57829003601f168201915b505050505092509450945094509450945091939590929450565b6119356040518060e001604052806000600160a060020a031681526020016000600160a060020a03168152602001606081526020016000815260200160008152602001600081526020016000151581525090565b6060806060600060065486106119605760405160e560020a62461bcd0281526004016101b9906122c7565b600086815260026020818152604092839020600a810154845160e0810186528254600160a060020a039081168252600184015416938101939093529281018054919460078601946008870194600988019460ff909216939092889290840191906119c9906124c8565b80601f01602080910402602001604051908101604052809291908181526020018280546119f5906124c8565b8015611a425780601f10611a1757610100808354040283529160200191611a42565b820191906000526020600020905b815481529060010190602001808311611a2557829003601f168201915b505050918352505060038201546020820152600482015460408201526005820154606082015260069091015460ff16151560809091015284549095508490611a89906124c8565b80601f0160208091040260200160405190810160405280929190818152602001828054611ab5906124c8565b8015611b025780601f10611ad757610100808354040283529160200191611b02565b820191906000526020600020905b815481529060010190602001808311611ae557829003601f168201915b50505050509350828054611b15906124c8565b80601f0160208091040260200160405190810160405280929190818152602001828054611b41906124c8565b8015611b8e5780601f10611b6357610100808354040283529160200191611b8e565b820191906000526020600020905b815481529060010190602001808311611b7157829003601f168201915b50505050509250818054611ba1906124c8565b80601f0160208091040260200160405190810160405280929190818152602001828054611bcd906124c8565b8015611c1a5780601f10611bef57610100808354040283529160200191611c1a565b820191906000526020600020905b815481529060010190602001808311611bfd57829003601f168201915b505050505091509450945094509450945091939590929450565b6001820154604080517f95d89b410000000000000000000000000000000000000000000000000000000081529051600092600160a060020a0316916395d89b419160048083019286929190829003018186803b158015611c9357600080fd5b505afa158015611ca7573d6000803e3d6000fd5b505050506040513d6000823e601f3d908101601f19168201604052611ccf9190810190612011565b6040517f455448000000000000000000000000000000000000000000000000000000000060208201529091506023016040516020818303038152906040528051906020012081604051602001611d25919061216f565b604051602081830303815290604052805190602001201415611d7d578254604051600160a060020a0384169180156108fc02916000818181858888f19350505050158015611d77573d6000803e3d6000fd5b50611e22565b600183015483546040517fa9059cbb000000000000000000000000000000000000000000000000000000008152600160a060020a038581166004830152602482019290925291169063a9059cbb90604401602060405180830381600087803b158015611de857600080fd5b505af1158015611dfc573d6000803e3d6000fd5b505050506040513d601f19601f82011682018060405250810190611e209190611fb0565b505b825460408051600160a060020a038516815260208101929092527ffa624aadd8a0eae4ee975eae5cf13c9803b361b7fa2d832427db6207c0882193910160405180910390a1505050565b828054611e78906124c8565b90600052602060002090601f016020900481019282611e9a5760008555611ee0565b82601f10611eb357805160ff1916838001178555611ee0565b82800160010185558215611ee0579182015b82811115611ee0578251825591602001919060010190611ec5565b50611eec929150611ef0565b5090565b5b80821115611eec5760008155600101611ef1565b600082601f830112611f1657600080fd5b8135611f29611f2482612451565b612420565b818152846020838601011115611f3e57600080fd5b816020850160208301376000918101602001919091529392505050565b60008060008060808587031215611f7157600080fd5b8451600160a060020a0381168114611f8857600080fd5b602086015160408701519195509350611fa081612553565b6060959095015193969295505050565b600060208284031215611fc257600080fd5b8151611fcd81612553565b9392505050565b600060208284031215611fe657600080fd5b813567ffffffffffffffff811115611ffd57600080fd5b61200984828501611f05565b949350505050565b60006020828403121561202357600080fd5b815167ffffffffffffffff81111561203a57600080fd5b8201601f8101841361204b57600080fd5b8051612059611f2482612451565b81815285602083850101111561206e57600080fd5b61207f826020830160208601612498565b95945050505050565b60006020828403121561209a57600080fd5b5035919050565b600080604083850312156120b457600080fd5b82359150602083013567ffffffffffffffff8111156120d257600080fd5b6120de85828601611f05565b9150509250929050565b6000806000606084860312156120fd57600080fd5b83359250602084013567ffffffffffffffff81111561211b57600080fd5b61212786828701611f05565b925050604084013561213881612553565b809150509250925092565b6000815180845261215b816020860160208601612498565b601f01601f19169290920160200192915050565b60008251612181818460208701612498565b9190910192915050565b81546000908190600281046001808316806121a757607f831692505b60208084108214156121ca5760e060020a634e487b710286526022600452602486fd5b8180156121de57600181146121ef5761221c565b60ff1986168952848901965061221c565b60008a81526020902060005b868110156122145781548b8201529085019083016121fb565b505084890196505b509498975050505050505050565b6000600160a060020a03808816835280871660208401525060a0604083015261225660a0830186612143565b606083019490945250608001529392505050565b60208082526022908201527f5468657265206973206e6f20696e766f69636520666f72207468697320696e6460408201527f6578000000000000000000000000000000000000000000000000000000000000606082015260800190565b60208082526024908201527f5468657265206973206e6f20636f6d706c61696e7420666f722074686973206960408201527f6e64657800000000000000000000000000000000000000000000000000000000606082015260800190565b60a081526000600160a060020a038088511660a08401528060208901511660c084015250604087015160e080840152612361610180840182612143565b90506060880151610100840152608088015161012084015260a088015161014084015260c0880151151561016084015282810360208401526123a38188612143565b905082810360408401526123b78187612143565b905082810360608401526123cb8186612143565b9150506123dc608083018415159052565b9695505050505050565b8481526080602082015260006123ff6080830186612143565b931515604083015250600160a060020a039190911660609091015292915050565b604051601f8201601f1916810167ffffffffffffffff811182821017156124495761244961253a565b604052919050565b600067ffffffffffffffff82111561246b5761246b61253a565b50601f01601f191660200190565b600081600019048311821515161561249357612493612521565b500290565b60005b838110156124b357818101518382015260200161249b565b838111156124c2576000848401525b50505050565b6002810460018216806124dc57607f821691505b602082108114156125005760e060020a634e487b7102600052602260045260246000fd5b50919050565b600060001982141561251a5761251a612521565b5060010190565b60e060020a634e487b7102600052601160045260246000fd5b60e060020a634e487b7102600052604160045260246000fd5b801515811461256157600080fd5b5056fea2646970667358221220b5d6d5ce6dae634c92bc294c3c7479a4c50322a208c688e9605e02534957db1e64736f6c6343000807003360806040523480156200001157600080fd5b5060405162000fd338038062000fd3833981016040819052620000349162000314565b6000825111620000a5576040517f08c379a000000000000000000000000000000000000000000000000000000000815260206004820152601f60248201527f4d756c746953696757616c6c65743a206f776e6572732072657175697265640060448201526064015b60405180910390fd5b600081118015620000b7575081518111155b62000145576040517f08c379a000000000000000000000000000000000000000000000000000000000815260206004820152603860248201527f4d756c746953696757616c6c65743a20696e76616c6964206e756d626572206f60448201527f6620726571756972656420636f6e6669726d6174696f6e73000000000000000060648201526084016200009c565b60005b8251811015620002ec57600083828151811062000169576200016962000438565b602002602001015190506000600160a060020a031681600160a060020a03161415620001f2576040517f08c379a000000000000000000000000000000000000000000000000000000000815260206004820152601d60248201527f4d756c746953696757616c6c65743a20696e76616c6964206f776e657200000060448201526064016200009c565b600160a060020a03811660009081526001602052604090205460ff161562000277576040517f08c379a000000000000000000000000000000000000000000000000000000000815260206004820181905260248201527f4d756c746953696757616c6c65743a206f776e6572206e6f7420756e6971756560448201526064016200009c565b600160a060020a031660008181526001602081905260408220805460ff191682179055815490810182559080527f290decd9548b62a8d60345a988386fc84ba6bc95484008f6362f93160ef3e563018054600160a060020a031916909117905580620002e381620003f5565b91505062000148565b506002555062000496565b8051600160a060020a03811681146200030f57600080fd5b919050565b600080604083850312156200032857600080fd5b825167ffffffffffffffff808211156200034157600080fd5b818501915085601f8301126200035657600080fd5b81516020828211156200036d576200036d62000467565b808202604051601f19603f8301168101818110868211171562000394576200039462000467565b604052838152828101945085830182870184018b1015620003b457600080fd5b600096505b84871015620003e257620003cd81620002f7565b865260019690960195948301948301620003b9565b5097909101519698969750505050505050565b600060001982141562000431577f4e487b7100000000000000000000000000000000000000000000000000000000600052601160045260246000fd5b5060010190565b7f4e487b7100000000000000000000000000000000000000000000000000000000600052603260045260246000fd5b7f4e487b7100000000000000000000000000000000000000000000000000000000600052604160045260246000fd5b610b2d80620004a66000396000f3fe608060405234801561001057600080fd5b50600436106100c6576000357c010000000000000000000000000000000000000000000000000000000090048063683ae0831161008e578063683ae0831461019857806380f59a65146101ab578063887e7be5146101d95780639ace38c2146101ec578063a0e67e2b146101ff578063d0549b851461021457600080fd5b8063025e7c27146100cb57806327782212146100fb5780632e7700f0146101105780632f54bf6e1461012257806333ea3dc814610155575b600080fd5b6100de6100d9366004610906565b61021d565b604051600160a060020a0390911681526020015b60405180910390f35b61010e6101093660046108a0565b610247565b005b6004545b6040519081526020016100f2565b61014561013036600461087e565b60016020526000908152604090205460ff1681565b60405190151581526020016100f2565b610168610163366004610906565b6103d5565b60408051600160a060020a03909516855260208501939093529015159183019190915260608201526080016100f2565b61010e6101a63660046108dc565b610430565b6101456101b936600461091f565b600360209081526000928352604080842090915290825290205460ff1681565b61010e6101e73660046108dc565b6105cf565b6101686101fa366004610906565b6107b9565b610207610800565b6040516100f2919061094b565b61011460025481565b6000818154811061022d57600080fd5b600091825260209091200154600160a060020a0316905081565b600160a060020a038316600090815260016020526040902054839060ff1661028d5760405160e560020a62461bcd02815260040161028490610998565b60405180910390fd5b6004805460408051608081018252600160a060020a03878116808352602080840189815260008587018181526060870182815260018a018b55918a905295517f8a35acfbc15ff81a39ae7d344fd709f28e8600b4aa8c65c6b64bfe7fe36bd19b998902998a01805473ffffffffffffffffffffffffffffffffffffffff19169190961617909455517f8a35acfbc15ff81a39ae7d344fd709f28e8600b4aa8c65c6b64bfe7fe36bd19c88015592517f8a35acfbc15ff81a39ae7d344fd709f28e8600b4aa8c65c6b64bfe7fe36bd19d8701805460ff191691151591909117905590517f8a35acfbc15ff81a39ae7d344fd709f28e8600b4aa8c65c6b64bfe7fe36bd19e909501949094559051858152919291839133917fcd144288a078b7562351164feb1762115faca27f30827b4142f2bbe27166e320910160405180910390a45050505050565b6000806000806000600486815481106103f0576103f0610ac8565b60009182526020909120600490910201805460018201546002830154600390930154600160a060020a039092169990985060ff9092169650945092505050565b600160a060020a038216600090815260016020526040902054829060ff1661046d5760405160e560020a62461bcd02815260040161028490610998565b600454829081106104935760405160e560020a62461bcd02815260040161028490610a2c565b82600481815481106104a7576104a7610ac8565b600091825260209091206002600490920201015460ff16156104de5760405160e560020a62461bcd028152600401610284906109cf565b6000600485815481106104f3576104f3610ac8565b90600052602060002090600402019050600254816003015410156105825760405160e560020a62461bcd02815260206004820152602160248201527f4d756c746953696757616c6c65743a2063616e6e6f742065786563757465207460448201527f78000000000000000000000000000000000000000000000000000000000000006064820152608401610284565b60028101805460ff191660011790556040518590600160a060020a038816907f5445f318f4f5fcfb66592e68e0cc5822aa15664039bd5f0ffde24c5a8142b1ac90600090a3505050505050565b600160a060020a038216600090815260016020526040902054829060ff1661060c5760405160e560020a62461bcd02815260040161028490610998565b600454829081106106325760405160e560020a62461bcd02815260040161028490610a2c565b826004818154811061064657610646610ac8565b600091825260209091206002600490920201015460ff161561067d5760405160e560020a62461bcd028152600401610284906109cf565b6000848152600360209081526040808320600160a060020a03891684529091529020548590859060ff161561071c5760405160e560020a62461bcd028152602060048201526024808201527f4d756c746953696757616c6c65743a20747820616c726561647920636f6e666960448201527f726d6564000000000000000000000000000000000000000000000000000000006064820152608401610284565b60006004878154811061073157610731610ac8565b9060005260206000209060040201905060018160030160008282546107569190610a89565b90915550506000878152600360209081526040808320600160a060020a038c168085529252808320805460ff191660011790555189927f5cbe105e36805f7820e291f799d5794ff948af2a5f664e580382defb6339004191a35050505050505050565b600481815481106107c957600080fd5b60009182526020909120600490910201805460018201546002830154600390930154600160a060020a0390921693509160ff169084565b6060600080548060200260200160405190810160405280929190818152602001828054801561085857602002820191906000526020600020905b8154600160a060020a0316815260019091019060200180831161083a575b5050505050905090565b8035600160a060020a038116811461087957600080fd5b919050565b60006020828403121561089057600080fd5b61089982610862565b9392505050565b6000806000606084860312156108b557600080fd5b6108be84610862565b92506108cc60208501610862565b9150604084013590509250925092565b600080604083850312156108ef57600080fd5b6108f883610862565b946020939093013593505050565b60006020828403121561091857600080fd5b5035919050565b6000806040838503121561093257600080fd5b8235915061094260208401610862565b90509250929050565b6020808252825182820181905260009190848201906040850190845b8181101561098c578351600160a060020a031683529284019291840191600101610967565b50909695505050505050565b60208082526019908201527f4d756c746953696757616c6c65743a206e6f74206f776e657200000000000000604082015260600190565b60208082526023908201527f4d756c746953696757616c6c65743a20747820616c726561647920657865637560408201527f7465640000000000000000000000000000000000000000000000000000000000606082015260800190565b60208082526021908201527f4d756c746953696757616c6c65743a20747820646f6573206e6f74206578697360408201527f7400000000000000000000000000000000000000000000000000000000000000606082015260800190565b60008219821115610ac3577f4e487b7100000000000000000000000000000000000000000000000000000000600052601160045260246000fd5b500190565b7f4e487b7100000000000000000000000000000000000000000000000000000000600052603260045260246000fdfea2646970667358221220c165da1e72f969c322dd35a9c57005a7c3283af25d0832cc0c88d5b971f8616964736f6c6343000807003360806040523480156200001157600080fd5b5060405162000ed438038062000ed48339810160408190526200003491620002f3565b8051819083906200004d90600390602085019062000196565b5080516200006390600490602084019062000196565b505050805160001415620000fe576040517f08c379a000000000000000000000000000000000000000000000000000000000815260206004820152602960248201527f45524332303a204e616d65206f662074686520746f6b656e2063616e206e6f7460448201527f20626520656d707479000000000000000000000000000000000000000000000060648201526084015b60405180910390fd5b81516200018e576040517f08c379a000000000000000000000000000000000000000000000000000000000815260206004820152602b60248201527f45524332303a2053796d626f6c206f662074686520746f6b656e2063616e206e60448201527f6f7420626520656d7074790000000000000000000000000000000000000000006064820152608401620000f5565b5050620003e2565b828054620001a4906200035d565b90600052602060002090601f016020900481019282620001c8576000855562000213565b82601f10620001e357805160ff191683800117855562000213565b8280016001018555821562000213579182015b8281111562000213578251825591602001919060010190620001f6565b506200022192915062000225565b5090565b5b8082111562000221576000815560010162000226565b600082601f8301126200024e57600080fd5b81516001604060020a03808211156200026b576200026b620003b3565b604051601f8301601f19908116603f01168101908282118183101715620002965762000296620003b3565b81604052838152602092508683858801011115620002b357600080fd5b600091505b83821015620002d75785820183015181830184015290820190620002b8565b83821115620002e95760008385830101525b9695505050505050565b600080604083850312156200030757600080fd5b82516001604060020a03808211156200031f57600080fd5b6200032d868387016200023c565b935060208501519150808211156200034457600080fd5b5062000353858286016200023c565b9150509250929050565b6002810460018216806200037257607f821691505b60208210811415620003ad577f4e487b7100000000000000000000000000000000000000000000000000000000600052602260045260246000fd5b50919050565b7f4e487b7100000000000000000000000000000000000000000000000000000000600052604160045260246000fd5b610ae280620003f26000396000f3fe608060405234801561001057600080fd5b50600436106100d1576000357c01000000000000000000000000000000000000000000000000000000009004806340c10f191161008e57806340c10f191461015e57806370a082311461017357806395d89b411461019c578063a457c2d7146101a4578063a9059cbb146101b7578063dd62ed3e146101ca57600080fd5b806306fdde03146100d6578063095ea7b3146100f457806318160ddd1461011757806323b872dd14610129578063313ce5671461013c578063395093511461014b575b600080fd5b6100de610203565b6040516100eb91906109c4565b60405180910390f35b61010761010236600461099a565b610295565b60405190151581526020016100eb565b6002545b6040519081526020016100eb565b61010761013736600461095e565b6102ab565b604051601281526020016100eb565b61010761015936600461099a565b610372565b61017161016c36600461099a565b6103ae565b005b61011b610181366004610909565b600160a060020a031660009081526020819052604090205490565b6100de6103bc565b6101076101b236600461099a565b6103cb565b6101076101c536600461099a565b61047f565b61011b6101d836600461092b565b600160a060020a03918216600090815260016020908152604080832093909416825291909152205490565b60606003805461021290610a58565b80601f016020809104026020016040519081016040528092919081815260200182805461023e90610a58565b801561028b5780601f106102605761010080835404028352916020019161028b565b820191906000526020600020905b81548152906001019060200180831161026e57829003601f168201915b5050505050905090565b60006102a233848461048c565b50600192915050565b60006102b88484846105ea565b600160a060020a03841660009081526001602090815260408083203384529091529020548281101561035a5760405160e560020a62461bcd02815260206004820152602860248201527f45524332303a207472616e7366657220616d6f756e742065786365656473206160448201527f6c6c6f77616e636500000000000000000000000000000000000000000000000060648201526084015b60405180910390fd5b610367853385840361048c565b506001949350505050565b336000818152600160209081526040808320600160a060020a038716845290915281205490916102a29185906103a9908690610a19565b61048c565b6103b8828261080b565b5050565b60606004805461021290610a58565b336000908152600160209081526040808320600160a060020a0386168452909152812054828110156104685760405160e560020a62461bcd02815260206004820152602560248201527f45524332303a2064656372656173656420616c6c6f77616e63652062656c6f7760448201527f207a65726f0000000000000000000000000000000000000000000000000000006064820152608401610351565b610475338585840361048c565b5060019392505050565b60006102a23384846105ea565b600160a060020a03831661050a5760405160e560020a62461bcd028152602060048201526024808201527f45524332303a20617070726f76652066726f6d20746865207a65726f2061646460448201527f72657373000000000000000000000000000000000000000000000000000000006064820152608401610351565b600160a060020a0382166105895760405160e560020a62461bcd02815260206004820152602260248201527f45524332303a20617070726f766520746f20746865207a65726f20616464726560448201527f73730000000000000000000000000000000000000000000000000000000000006064820152608401610351565b600160a060020a0383811660008181526001602090815260408083209487168084529482529182902085905590518481527f8c5be1e5ebec7d5bd14f71427d1e84f3dd0314c0f7b2291e5b200ac8c7c3b925910160405180910390a3505050565b600160a060020a0383166106695760405160e560020a62461bcd02815260206004820152602560248201527f45524332303a207472616e736665722066726f6d20746865207a65726f20616460448201527f64726573730000000000000000000000000000000000000000000000000000006064820152608401610351565b600160a060020a0382166106e85760405160e560020a62461bcd02815260206004820152602360248201527f45524332303a207472616e7366657220746f20746865207a65726f206164647260448201527f65737300000000000000000000000000000000000000000000000000000000006064820152608401610351565b600160a060020a0383166000908152602081905260409020548181101561077a5760405160e560020a62461bcd02815260206004820152602660248201527f45524332303a207472616e7366657220616d6f756e742065786365656473206260448201527f616c616e636500000000000000000000000000000000000000000000000000006064820152608401610351565b600160a060020a038085166000908152602081905260408082208585039055918516815290812080548492906107b1908490610a19565b9250508190555082600160a060020a031684600160a060020a03167fddf252ad1be2c89b69c2b068fc378daa952ba7f163c4a11628f55a4df523b3ef846040516107fd91815260200190565b60405180910390a350505050565b600160a060020a0382166108645760405160e560020a62461bcd02815260206004820152601f60248201527f45524332303a206d696e7420746f20746865207a65726f2061646472657373006044820152606401610351565b80600260008282546108769190610a19565b9091555050600160a060020a038216600090815260208190526040812080548392906108a3908490610a19565b9091555050604051818152600160a060020a038316906000907fddf252ad1be2c89b69c2b068fc378daa952ba7f163c4a11628f55a4df523b3ef9060200160405180910390a35050565b8035600160a060020a038116811461090457600080fd5b919050565b60006020828403121561091b57600080fd5b610924826108ed565b9392505050565b6000806040838503121561093e57600080fd5b610947836108ed565b9150610955602084016108ed565b90509250929050565b60008060006060848603121561097357600080fd5b61097c846108ed565b925061098a602085016108ed565b9150604084013590509250925092565b600080604083850312156109ad57600080fd5b6109b6836108ed565b946020939093013593505050565b600060208083528351808285015260005b818110156109f1578581018301518582016040015282016109d5565b81811115610a03576000604083870101525b50601f01601f1916929092016040019392505050565b60008219821115610a53577f4e487b7100000000000000000000000000000000000000000000000000000000600052601160045260246000fd5b500190565b600281046001821680610a6c57607f821691505b60208210811415610aa6577f4e487b7100000000000000000000000000000000000000000000000000000000600052602260045260246000fd5b5091905056fea264697066735822122053e5d9ecc830abfe3a38967f48c1c5e864b139323e63b1d8f82508f1a1e8a79064736f6c63430008070033",
  "immutableReferences": {},
  "source": "// SPDX-License-Identifier: MIT\n\npragma solidity ^0.8.7;\npragma abicoder v2;\n\nimport \"./CustomERC20.sol\";\nimport \"./MultiSigWallet.sol\";\n\ncontract Deal {\n    MultiSigWallet private multiSigWallet;\n    address private arbitrator;\n    mapping(uint256 => Complaint) private complains;\n    mapping(uint256 => Invoice) private invoices;\n    mapping(string => Product) private products;\n    mapping(string => ERC20Token) private ERC20Tokens;\n    uint256 private complainsCount = 0;\n    uint256 private invoicesCount = 0;\n\n    constructor(address[] memory _owners) {\n        require(\n            _owners.length == 3,\n            \"Contract accepts only 3 owners for the Multisig wallet\"\n        );\n\n        multiSigWallet = new MultiSigWallet(_owners, 2);\n\n        ERC20Tokens[\"USDC\"] = ERC20Token({\n            token: new CustomERC20(\"USDC\", \"USD coin\"),\n            isMinted: false\n        });\n        ERC20Tokens[\"DAI\"] = ERC20Token({\n            token: new CustomERC20(\"DAI\", \"Dai\"),\n            isMinted: false\n        });\n        ERC20Tokens[\"LINK\"] = ERC20Token({\n            token: new CustomERC20(\"LINK\", \"Chainlink\"),\n            isMinted: false\n        });\n        ERC20Tokens[\"ETH\"] = ERC20Token({\n            token: new CustomERC20(\"ETH\", \"Ethereum\"),\n            isMinted: false\n        });\n\n        products[\"Bike\"] = Product({\n            price: 1,\n            token: ERC20Tokens[\"USDC\"].token,\n            isBroken: false,\n            productOwner: msg.sender\n        });\n        products[\"Car\"] = Product({\n            price: 5,\n            token: ERC20Tokens[\"DAI\"].token,\n            isBroken: true,\n            productOwner: msg.sender\n        });\n        products[\"Rollers\"] = Product({\n            price: 2,\n            token: ERC20Tokens[\"LINK\"].token,\n            isBroken: false,\n            productOwner: msg.sender\n        });\n        products[\"Skateboard\"] = Product({\n            price: 2 ether,\n            token: ERC20Tokens[\"ETH\"].token,\n            isBroken: false,\n            productOwner: msg.sender\n        });\n    }\n\n    struct ERC20Token {\n        CustomERC20 token;\n        bool isMinted;\n    }\n\n    struct Product {\n        uint256 price;\n        CustomERC20 token;\n        bool isBroken;\n        address productOwner;\n    }\n\n    struct Invoice {\n        address payable buyer;\n        address payable seller;\n        string productName;\n        uint256 price;\n        uint256 date;\n        uint256 transactionIndex;\n        bool isConfirmed;\n    }\n\n    struct Complaint {\n        Invoice invoice;\n        string buyerComment;\n        string sellerComment;\n        string arbitratorComment;\n        bool isResolved;\n    }\n\n    event ApproveTransaction(address payable recipient, uint256 amount);\n\n    function getInvoiceInfo(uint256 invoiceIndex)\n        public\n        view\n        returns (\n            address,\n            address payable,\n            string memory,\n            uint256,\n            uint256\n        )\n    {\n        require(\n            invoiceIndex < invoicesCount,\n            \"There is no invoice for this index\"\n        );\n\n        return (\n            invoices[invoiceIndex].buyer,\n            invoices[invoiceIndex].seller,\n            invoices[invoiceIndex].productName,\n            invoices[invoiceIndex].price,\n            invoices[invoiceIndex].date\n        );\n    }\n\n    function getProductInfo(string memory name)\n        public\n        view\n        returns (\n            uint256,\n            string memory,\n            bool,\n            address\n        )\n    {\n        return (\n            products[name].price,\n            products[name].token.name(),\n            products[name].isBroken,\n            products[name].productOwner\n        );\n    }\n\n    function getComplaintInfo(uint256 complaintIndex)\n        public\n        view\n        returns (\n            Invoice memory,\n            string memory,\n            string memory,\n            string memory,\n            bool\n        )\n    {\n        require(\n            complaintIndex < complainsCount,\n            \"There is no complaint for this index\"\n        );\n\n        return (\n            complains[complaintIndex].invoice,\n            complains[complaintIndex].buyerComment,\n            complains[complaintIndex].sellerComment,\n            complains[complaintIndex].arbitratorComment,\n            complains[complaintIndex].isResolved\n        );\n    }\n\n    function buyProduct(string memory productName) public payable {\n        require(\n            products[productName].price != 0,\n            \"Purchase of a non-existent product is not possible\"\n        );\n\n        require(arbitrator != msg.sender, \"The arbitrator can't buy a product\");\n\n        require(\n            products[productName].productOwner != msg.sender,\n            \"The product owner can't buy his own product\"\n        );\n\n        invoices[invoicesCount] = Invoice({\n            buyer: payable(msg.sender),\n            seller: payable(products[productName].productOwner),\n            productName: productName,\n            price: products[productName].price,\n            date: block.timestamp,\n            transactionIndex: invoicesCount,\n            isConfirmed: false\n        });\n\n        string memory symbol = products[productName].token.symbol();\n\n        if (\n            keccak256(abi.encodePacked(symbol)) ==\n            keccak256(abi.encodePacked(\"ETH\"))\n        ) {\n            require(\n                products[productName].price == msg.value,\n                \"The paid amount of Ether is different than the price of the product\"\n            );\n\n            multiSigWallet.submitTransaction(\n                msg.sender,\n                invoices[invoicesCount].seller,\n                invoices[invoicesCount].price\n            ); // submit transfer eather from buyer to seller\n            multiSigWallet.confirmTransaction(\n                msg.sender,\n                invoices[invoicesCount].transactionIndex\n            );\n            invoicesCount++;\n        } else {\n            require(\n                !ERC20Tokens[symbol].isMinted,\n                \"ERC20 Token for this product has been already minted\"\n            );\n\n            require(\n                products[productName].price * 1 ether == msg.value,\n                \"To make a deposit for the product, you need to pay the price of tokens in the Ether, where the rate is 1 to 1\"\n            );\n\n            multiSigWallet.submitTransaction(\n                msg.sender,\n                invoices[invoicesCount].seller,\n                invoices[invoicesCount].price\n            ); // submit transfer eather from buyer to seller\n            multiSigWallet.confirmTransaction(\n                msg.sender,\n                invoices[invoicesCount].transactionIndex\n            );\n            invoicesCount++;\n\n            ERC20Tokens[symbol].token.mint(\n                address(this),\n                products[productName].price\n            );\n            ERC20Tokens[symbol].isMinted = true;\n        }\n    }\n\n    function approveTransaction(\n        Product storage product,\n        address payable recipient\n    ) private {\n        string memory symbol = product.token.symbol();\n\n        if (\n            keccak256(abi.encodePacked(symbol)) ==\n            keccak256(abi.encodePacked(\"ETH\"))\n        ) {\n            recipient.transfer(product.price); // transfer eather from smart contract to the seller\n        } else {\n            product.token.transfer(recipient, product.price); // transfer tokens from smart contract to the seller\n        }\n\n        emit ApproveTransaction(recipient, product.price);\n    }\n\n    function confirmProductSale(uint256 invoiceIndex) public {\n        require(\n            invoices[invoiceIndex].seller == msg.sender,\n            \"In order to confirm the product sale, it is necessary to be a seller of the product\"\n        );\n\n        multiSigWallet.confirmTransaction(\n            msg.sender,\n            invoices[invoiceIndex].transactionIndex\n        );\n        multiSigWallet.executeTransaction(\n            msg.sender,\n            invoices[invoiceIndex].transactionIndex\n        );\n\n        (, , bool exectued, ) = multiSigWallet.getTransaction(\n            invoices[invoiceIndex].transactionIndex\n        );\n\n        require(\n            exectued,\n            \"The transaction is not confirmed by at least two persons yet\"\n        );\n\n        approveTransaction(\n            products[invoices[invoiceIndex].productName],\n            invoices[invoiceIndex].seller\n        );\n\n        invoices[invoiceIndex].isConfirmed = true;\n        products[invoices[invoiceIndex].productName].productOwner = invoices[\n            invoiceIndex\n        ].buyer;\n    }\n\n    function makeComplaint(uint256 invoiceIndex, string memory comment) public {\n        require(\n            invoiceIndex < invoicesCount,\n            \"There is no invoice for this index\"\n        );\n\n        require(\n            invoices[invoiceIndex].buyer == msg.sender ||\n                invoices[invoiceIndex].seller == msg.sender,\n            \"It is impossible to complain not yours invoice\"\n        );\n\n        string memory buyerComment = \"\";\n        string memory sellerComment = \"\";\n\n        if (msg.sender == invoices[invoiceIndex].buyer) {\n            buyerComment = comment;\n        } else {\n            sellerComment = comment;\n        }\n\n        complains[complainsCount] = Complaint({\n            invoice: invoices[invoiceIndex],\n            buyerComment: buyerComment,\n            sellerComment: sellerComment,\n            arbitratorComment: \"\",\n            isResolved: false\n        });\n\n        complainsCount++;\n    }\n\n    function resolveComplaint(\n        uint256 complaintIndex,\n        string memory comment,\n        bool acceptPayment\n    ) public payable {\n        require(\n            complaintIndex < complainsCount,\n            \"There is no complaint for this index\"\n        );\n\n        require(\n            complains[complaintIndex].invoice.buyer != msg.sender,\n            \"Buyer can not resolve complaints\"\n        );\n\n        require(\n            complains[complaintIndex].invoice.seller != msg.sender,\n            \"Seller can not resolve complaints\"\n        );\n\n        require(\n            complains[complaintIndex].isResolved != true,\n            \"Only unresolved complaints is possible to resolve\"\n        );\n\n        arbitrator = msg.sender;\n\n        Invoice storage invoice = complains[complaintIndex].invoice;\n\n        if (acceptPayment) {\n            multiSigWallet.confirmTransaction(\n                msg.sender,\n                complains[complaintIndex].invoice.transactionIndex\n            );\n            multiSigWallet.executeTransaction(\n                msg.sender,\n                complains[complaintIndex].invoice.transactionIndex\n            );\n            approveTransaction(products[invoice.productName], invoice.seller); // transfer eather from smart contract to the seller\n        } else {\n            approveTransaction(products[invoice.productName], invoice.buyer); // transfer eather from smart contract to the buyer\n        }\n\n        complains[complaintIndex].arbitratorComment = comment;\n        complains[complaintIndex].isResolved = true;\n    }\n}\n",
  "sourcePath": "/home/taranchik/Public/Workflow/deal-smart-contract/contracts/Deal.sol",
  "compiler": {
    "name": "solc",
    "version": "0.8.7+commit.e28d00a7.Emscripten.clang"
  },
  "schemaVersion": "3.4.3",
  "updatedAt": "2021-09-22T17:44:05.851Z",
  "networkType": "ethereum",
  "devdoc": {
    "kind": "dev",
    "methods": {},
    "version": 1
  },
  "userdoc": {
    "kind": "user",
    "methods": {},
    "version": 1
  }
}