{
  "contractName": "MultiSigWallet",
  "abi": [
    {
      "inputs": [
        {
          "internalType": "address[]",
          "name": "_owners",
          "type": "address[]"
        },
        {
          "internalType": "uint256",
          "name": "_numConfirmationsRequired",
          "type": "uint256"
        }
      ],
      "stateMutability": "nonpayable",
      "type": "constructor"
    },
    {
      "anonymous": false,
      "inputs": [
        {
          "indexed": true,
          "internalType": "address",
          "name": "owner",
          "type": "address"
        },
        {
          "indexed": true,
          "internalType": "uint256",
          "name": "txIndex",
          "type": "uint256"
        }
      ],
      "name": "ConfirmTransaction",
      "type": "event"
    },
    {
      "anonymous": false,
      "inputs": [
        {
          "indexed": true,
          "internalType": "address",
          "name": "owner",
          "type": "address"
        },
        {
          "indexed": true,
          "internalType": "uint256",
          "name": "txIndex",
          "type": "uint256"
        }
      ],
      "name": "ExecuteTransaction",
      "type": "event"
    },
    {
      "anonymous": false,
      "inputs": [
        {
          "indexed": true,
          "internalType": "address",
          "name": "owner",
          "type": "address"
        },
        {
          "indexed": true,
          "internalType": "uint256",
          "name": "txIndex",
          "type": "uint256"
        },
        {
          "indexed": true,
          "internalType": "address",
          "name": "to",
          "type": "address"
        },
        {
          "indexed": false,
          "internalType": "uint256",
          "name": "value",
          "type": "uint256"
        }
      ],
      "name": "SubmitTransaction",
      "type": "event"
    },
    {
      "anonymous": false,
      "inputs": [
        {
          "components": [
            {
              "internalType": "address",
              "name": "to",
              "type": "address"
            },
            {
              "internalType": "uint256",
              "name": "value",
              "type": "uint256"
            },
            {
              "internalType": "bool",
              "name": "executed",
              "type": "bool"
            },
            {
              "internalType": "uint256",
              "name": "numConfirmations",
              "type": "uint256"
            }
          ],
          "indexed": false,
          "internalType": "struct MultiSigWallet.Transaction",
          "name": "",
          "type": "tuple"
        }
      ],
      "name": "checkEvent",
      "type": "event"
    },
    {
      "inputs": [
        {
          "internalType": "uint256",
          "name": "",
          "type": "uint256"
        },
        {
          "internalType": "address",
          "name": "",
          "type": "address"
        }
      ],
      "name": "isConfirmed",
      "outputs": [
        {
          "internalType": "bool",
          "name": "",
          "type": "bool"
        }
      ],
      "stateMutability": "view",
      "type": "function"
    },
    {
      "inputs": [
        {
          "internalType": "address",
          "name": "",
          "type": "address"
        }
      ],
      "name": "isOwner",
      "outputs": [
        {
          "internalType": "bool",
          "name": "",
          "type": "bool"
        }
      ],
      "stateMutability": "view",
      "type": "function"
    },
    {
      "inputs": [],
      "name": "numConfirmationsRequired",
      "outputs": [
        {
          "internalType": "uint256",
          "name": "",
          "type": "uint256"
        }
      ],
      "stateMutability": "view",
      "type": "function"
    },
    {
      "inputs": [
        {
          "internalType": "uint256",
          "name": "",
          "type": "uint256"
        }
      ],
      "name": "owners",
      "outputs": [
        {
          "internalType": "address",
          "name": "",
          "type": "address"
        }
      ],
      "stateMutability": "view",
      "type": "function"
    },
    {
      "inputs": [
        {
          "internalType": "uint256",
          "name": "",
          "type": "uint256"
        }
      ],
      "name": "transactions",
      "outputs": [
        {
          "internalType": "address",
          "name": "to",
          "type": "address"
        },
        {
          "internalType": "uint256",
          "name": "value",
          "type": "uint256"
        },
        {
          "internalType": "bool",
          "name": "executed",
          "type": "bool"
        },
        {
          "internalType": "uint256",
          "name": "numConfirmations",
          "type": "uint256"
        }
      ],
      "stateMutability": "view",
      "type": "function"
    },
    {
      "inputs": [
        {
          "internalType": "address",
          "name": "_sender",
          "type": "address"
        },
        {
          "internalType": "address",
          "name": "_to",
          "type": "address"
        },
        {
          "internalType": "uint256",
          "name": "_value",
          "type": "uint256"
        }
      ],
      "name": "submitTransaction",
      "outputs": [],
      "stateMutability": "nonpayable",
      "type": "function"
    },
    {
      "inputs": [
        {
          "internalType": "address",
          "name": "_sender",
          "type": "address"
        },
        {
          "internalType": "uint256",
          "name": "_txIndex",
          "type": "uint256"
        }
      ],
      "name": "confirmTransaction",
      "outputs": [],
      "stateMutability": "nonpayable",
      "type": "function"
    },
    {
      "inputs": [
        {
          "internalType": "address",
          "name": "_sender",
          "type": "address"
        },
        {
          "internalType": "uint256",
          "name": "_txIndex",
          "type": "uint256"
        }
      ],
      "name": "executeTransaction",
      "outputs": [],
      "stateMutability": "nonpayable",
      "type": "function"
    },
    {
      "inputs": [],
      "name": "getOwners",
      "outputs": [
        {
          "internalType": "address[]",
          "name": "",
          "type": "address[]"
        }
      ],
      "stateMutability": "view",
      "type": "function"
    },
    {
      "inputs": [],
      "name": "getTransactionCount",
      "outputs": [
        {
          "internalType": "uint256",
          "name": "",
          "type": "uint256"
        }
      ],
      "stateMutability": "view",
      "type": "function"
    },
    {
      "inputs": [
        {
          "internalType": "uint256",
          "name": "_txIndex",
          "type": "uint256"
        }
      ],
      "name": "getTransaction",
      "outputs": [
        {
          "internalType": "address",
          "name": "to",
          "type": "address"
        },
        {
          "internalType": "uint256",
          "name": "value",
          "type": "uint256"
        },
        {
          "internalType": "bool",
          "name": "executed",
          "type": "bool"
        },
        {
          "internalType": "uint256",
          "name": "numConfirmations",
          "type": "uint256"
        }
      ],
      "stateMutability": "view",
      "type": "function"
    }
  ],
  "bytecode": "0x60806040523480156200001157600080fd5b5060405162001aaf38038062001aaf8339818101604052810190620000379190620003c1565b60008251116200007e576040517f08c379a0000000000000000000000000000000000000000000000000000000008152600401620000759062000507565b60405180910390fd5b60008111801562000090575081518111155b620000d2576040517f08c379a0000000000000000000000000000000000000000000000000000000008152600401620000c99062000529565b60405180910390fd5b60005b8251811015620002d5576000838281518110620000f757620000f6620006a5565b5b60200260200101519050600073ffffffffffffffffffffffffffffffffffffffff168173ffffffffffffffffffffffffffffffffffffffff16141562000174576040517f08c379a00000000000000000000000000000000000000000000000000000000081526004016200016b90620004e5565b60405180910390fd5b600160008273ffffffffffffffffffffffffffffffffffffffff1673ffffffffffffffffffffffffffffffffffffffff16815260200190815260200160002060009054906101000a900460ff161562000204576040517f08c379a0000000000000000000000000000000000000000000000000000000008152600401620001fb90620004c3565b60405180910390fd5b60018060008373ffffffffffffffffffffffffffffffffffffffff1673ffffffffffffffffffffffffffffffffffffffff16815260200190815260200160002060006101000a81548160ff0219169083151502179055506000819080600181540180825580915050600190039060005260206000200160009091909190916101000a81548173ffffffffffffffffffffffffffffffffffffffff021916908373ffffffffffffffffffffffffffffffffffffffff160217905550508080620002cc9062000628565b915050620000d5565b5080600281905550505062000826565b6000620002fc620002f68462000574565b6200054b565b9050808382526020820190508285602086028201111562000322576200032162000708565b5b60005b858110156200035657816200033b888262000360565b84526020840193506020830192505060018101905062000325565b5050509392505050565b6000815190506200037181620007f2565b92915050565b600082601f8301126200038f576200038e62000703565b5b8151620003a1848260208601620002e5565b91505092915050565b600081519050620003bb816200080c565b92915050565b60008060408385031215620003db57620003da62000712565b5b600083015167ffffffffffffffff811115620003fc57620003fb6200070d565b5b6200040a8582860162000377565b92505060206200041d85828601620003aa565b9150509250929050565b600062000436602083620005a3565b9150620004438262000728565b602082019050919050565b60006200045d601d83620005a3565b91506200046a8262000751565b602082019050919050565b600062000484601f83620005a3565b915062000491826200077a565b602082019050919050565b6000620004ab603883620005a3565b9150620004b882620007a3565b604082019050919050565b60006020820190508181036000830152620004de8162000427565b9050919050565b6000602082019050818103600083015262000500816200044e565b9050919050565b60006020820190508181036000830152620005228162000475565b9050919050565b6000602082019050818103600083015262000544816200049c565b9050919050565b6000620005576200056a565b9050620005658282620005f2565b919050565b6000604051905090565b600067ffffffffffffffff821115620005925762000591620006d4565b5b602082029050602081019050919050565b600082825260208201905092915050565b6000620005c182620005c8565b9050919050565b600073ffffffffffffffffffffffffffffffffffffffff82169050919050565b6000819050919050565b620005fd8262000717565b810181811067ffffffffffffffff821117156200061f576200061e620006d4565b5b80604052505050565b60006200063582620005e8565b91507fffffffffffffffffffffffffffffffffffffffffffffffffffffffffffffffff8214156200066b576200066a62000676565b5b600182019050919050565b7f4e487b7100000000000000000000000000000000000000000000000000000000600052601160045260246000fd5b7f4e487b7100000000000000000000000000000000000000000000000000000000600052603260045260246000fd5b7f4e487b7100000000000000000000000000000000000000000000000000000000600052604160045260246000fd5b600080fd5b600080fd5b600080fd5b600080fd5b6000601f19601f8301169050919050565b7f4d756c746953696757616c6c65743a206f776e6572206e6f7420756e69717565600082015250565b7f4d756c746953696757616c6c65743a20696e76616c6964206f776e6572000000600082015250565b7f4d756c746953696757616c6c65743a206f776e65727320726571756972656400600082015250565b7f4d756c746953696757616c6c65743a20696e76616c6964206e756d626572206f60008201527f6620726571756972656420636f6e6669726d6174696f6e730000000000000000602082015250565b620007fd81620005b4565b81146200080957600080fd5b50565b6200081781620005e8565b81146200082357600080fd5b50565b61127980620008366000396000f3fe608060405234801561001057600080fd5b50600436106100a95760003560e01c8063683ae08311610071578063683ae0831461017b57806380f59a6514610197578063887e7be5146101c75780639ace38c2146101e3578063a0e67e2b14610216578063d0549b8514610234576100a9565b8063025e7c27146100ae57806327782212146100de5780632e7700f0146100fa5780632f54bf6e1461011857806333ea3dc814610148575b600080fd5b6100c860048036038101906100c39190610c3f565b610252565b6040516100d59190610e0d565b60405180910390f35b6100f860048036038101906100f39190610bac565b610291565b005b610102610478565b60405161010f9190610f4a565b60405180910390f35b610132600480360381019061012d9190610b7f565b610485565b60405161013f9190610e8f565b60405180910390f35b610162600480360381019061015d9190610c3f565b6104a5565b6040516101729493929190610e28565b60405180910390f35b61019560048036038101906101909190610bff565b610522565b005b6101b160048036038101906101ac9190610c6c565b610743565b6040516101be9190610e8f565b60405180910390f35b6101e160048036038101906101dc9190610bff565b610772565b005b6101fd60048036038101906101f89190610c3f565b610a54565b60405161020d9493929190610e28565b60405180910390f35b61021e610ac1565b60405161022b9190610e6d565b60405180910390f35b61023c610b4f565b6040516102499190610f4a565b60405180910390f35b6000818154811061026257600080fd5b906000526020600020016000915054906101000a900473ffffffffffffffffffffffffffffffffffffffff1681565b82600160008273ffffffffffffffffffffffffffffffffffffffff1673ffffffffffffffffffffffffffffffffffffffff16815260200190815260200160002060009054906101000a900460ff1661031e576040517f08c379a000000000000000000000000000000000000000000000000000000000815260040161031590610eca565b60405180910390fd5b60006004805490509050600460405180608001604052808673ffffffffffffffffffffffffffffffffffffffff1681526020018581526020016000151581526020016000815250908060018154018082558091505060019003906000526020600020906004020160009091909190915060008201518160000160006101000a81548173ffffffffffffffffffffffffffffffffffffffff021916908373ffffffffffffffffffffffffffffffffffffffff1602179055506020820151816001015560408201518160020160006101000a81548160ff0219169083151502179055506060820151816003015550508373ffffffffffffffffffffffffffffffffffffffff16813373ffffffffffffffffffffffffffffffffffffffff167fcd144288a078b7562351164feb1762115faca27f30827b4142f2bbe27166e320866040516104699190610f4a565b60405180910390a45050505050565b6000600480549050905090565b60016020528060005260406000206000915054906101000a900460ff1681565b6000806000806000600486815481106104c1576104c061107c565b5b906000526020600020906004020190508060000160009054906101000a900473ffffffffffffffffffffffffffffffffffffffff1681600101548260020160009054906101000a900460ff1683600301549450945094509450509193509193565b81600160008273ffffffffffffffffffffffffffffffffffffffff1673ffffffffffffffffffffffffffffffffffffffff16815260200190815260200160002060009054906101000a900460ff166105af576040517f08c379a00000000000000000000000000000000000000000000000000000000081526004016105a690610eca565b60405180910390fd5b8160048054905081106105f7576040517f08c379a00000000000000000000000000000000000000000000000000000000081526004016105ee90610f2a565b60405180910390fd5b826004818154811061060c5761060b61107c565b5b906000526020600020906004020160020160009054906101000a900460ff161561066b576040517f08c379a000000000000000000000000000000000000000000000000000000000815260040161066290610eea565b60405180910390fd5b6000600485815481106106815761068061107c565b5b90600052602060002090600402019050600254816003015410156106da576040517f08c379a00000000000000000000000000000000000000000000000000000000081526004016106d190610eaa565b60405180910390fd5b60018160020160006101000a81548160ff021916908315150217905550848673ffffffffffffffffffffffffffffffffffffffff167f5445f318f4f5fcfb66592e68e0cc5822aa15664039bd5f0ffde24c5a8142b1ac60405160405180910390a3505050505050565b60036020528160005260406000206020528060005260406000206000915091509054906101000a900460ff1681565b81600160008273ffffffffffffffffffffffffffffffffffffffff1673ffffffffffffffffffffffffffffffffffffffff16815260200190815260200160002060009054906101000a900460ff166107ff576040517f08c379a00000000000000000000000000000000000000000000000000000000081526004016107f690610eca565b60405180910390fd5b816004805490508110610847576040517f08c379a000000000000000000000000000000000000000000000000000000000815260040161083e90610f2a565b60405180910390fd5b826004818154811061085c5761085b61107c565b5b906000526020600020906004020160020160009054906101000a900460ff16156108bb576040517f08c379a00000000000000000000000000000000000000000000000000000000081526004016108b290610eea565b60405180910390fd5b84846003600082815260200190815260200160002060008373ffffffffffffffffffffffffffffffffffffffff1673ffffffffffffffffffffffffffffffffffffffff16815260200190815260200160002060009054906101000a900460ff161561095b576040517f08c379a000000000000000000000000000000000000000000000000000000000815260040161095290610f0a565b60405180910390fd5b6000600487815481106109715761097061107c565b5b9060005260206000209060040201905060018160030160008282546109969190610faf565b9250508190555060016003600089815260200190815260200160002060008a73ffffffffffffffffffffffffffffffffffffffff1673ffffffffffffffffffffffffffffffffffffffff16815260200190815260200160002060006101000a81548160ff021916908315150217905550868873ffffffffffffffffffffffffffffffffffffffff167f5cbe105e36805f7820e291f799d5794ff948af2a5f664e580382defb6339004160405160405180910390a35050505050505050565b60048181548110610a6457600080fd5b90600052602060002090600402016000915090508060000160009054906101000a900473ffffffffffffffffffffffffffffffffffffffff16908060010154908060020160009054906101000a900460ff16908060030154905084565b60606000805480602002602001604051908101604052809291908181526020018280548015610b4557602002820191906000526020600020905b8160009054906101000a900473ffffffffffffffffffffffffffffffffffffffff1673ffffffffffffffffffffffffffffffffffffffff1681526020019060010190808311610afb575b5050505050905090565b60025481565b600081359050610b6481611215565b92915050565b600081359050610b798161122c565b92915050565b600060208284031215610b9557610b946110ab565b5b6000610ba384828501610b55565b91505092915050565b600080600060608486031215610bc557610bc46110ab565b5b6000610bd386828701610b55565b9350506020610be486828701610b55565b9250506040610bf586828701610b6a565b9150509250925092565b60008060408385031215610c1657610c156110ab565b5b6000610c2485828601610b55565b9250506020610c3585828601610b6a565b9150509250929050565b600060208284031215610c5557610c546110ab565b5b6000610c6384828501610b6a565b91505092915050565b60008060408385031215610c8357610c826110ab565b5b6000610c9185828601610b6a565b9250506020610ca285828601610b55565b9150509250929050565b6000610cb88383610cc4565b60208301905092915050565b610ccd81611005565b82525050565b610cdc81611005565b82525050565b6000610ced82610f75565b610cf78185610f8d565b9350610d0283610f65565b8060005b83811015610d33578151610d1a8882610cac565b9750610d2583610f80565b925050600181019050610d06565b5085935050505092915050565b610d4981611017565b82525050565b6000610d5c602183610f9e565b9150610d67826110b0565b604082019050919050565b6000610d7f601983610f9e565b9150610d8a826110ff565b602082019050919050565b6000610da2602383610f9e565b9150610dad82611128565b604082019050919050565b6000610dc5602483610f9e565b9150610dd082611177565b604082019050919050565b6000610de8602183610f9e565b9150610df3826111c6565b604082019050919050565b610e0781611043565b82525050565b6000602082019050610e226000830184610cd3565b92915050565b6000608082019050610e3d6000830187610cd3565b610e4a6020830186610dfe565b610e576040830185610d40565b610e646060830184610dfe565b95945050505050565b60006020820190508181036000830152610e878184610ce2565b905092915050565b6000602082019050610ea46000830184610d40565b92915050565b60006020820190508181036000830152610ec381610d4f565b9050919050565b60006020820190508181036000830152610ee381610d72565b9050919050565b60006020820190508181036000830152610f0381610d95565b9050919050565b60006020820190508181036000830152610f2381610db8565b9050919050565b60006020820190508181036000830152610f4381610ddb565b9050919050565b6000602082019050610f5f6000830184610dfe565b92915050565b6000819050602082019050919050565b600081519050919050565b6000602082019050919050565b600082825260208201905092915050565b600082825260208201905092915050565b6000610fba82611043565b9150610fc583611043565b9250827fffffffffffffffffffffffffffffffffffffffffffffffffffffffffffffffff03821115610ffa57610ff961104d565b5b828201905092915050565b600061101082611023565b9050919050565b60008115159050919050565b600073ffffffffffffffffffffffffffffffffffffffff82169050919050565b6000819050919050565b7f4e487b7100000000000000000000000000000000000000000000000000000000600052601160045260246000fd5b7f4e487b7100000000000000000000000000000000000000000000000000000000600052603260045260246000fd5b600080fd5b7f4d756c746953696757616c6c65743a2063616e6e6f742065786563757465207460008201527f7800000000000000000000000000000000000000000000000000000000000000602082015250565b7f4d756c746953696757616c6c65743a206e6f74206f776e657200000000000000600082015250565b7f4d756c746953696757616c6c65743a20747820616c726561647920657865637560008201527f7465640000000000000000000000000000000000000000000000000000000000602082015250565b7f4d756c746953696757616c6c65743a20747820616c726561647920636f6e666960008201527f726d656400000000000000000000000000000000000000000000000000000000602082015250565b7f4d756c746953696757616c6c65743a20747820646f6573206e6f74206578697360008201527f7400000000000000000000000000000000000000000000000000000000000000602082015250565b61121e81611005565b811461122957600080fd5b50565b61123581611043565b811461124057600080fd5b5056fea26469706673582212201cb787df6e7eea3a894159de0e23b44c6ceb1127c2827a109600f099f7fb140164736f6c63430008070033",
  "immutableReferences": {},
  "source": "// SPDX-License-Identifier: MIT\npragma solidity ^0.8.7;\npragma abicoder v2;\n\ncontract MultiSigWallet {\n    event SubmitTransaction(\n        address indexed owner,\n        uint256 indexed txIndex,\n        address indexed to,\n        uint256 value\n    );\n    event ConfirmTransaction(address indexed owner, uint256 indexed txIndex);\n    event ExecuteTransaction(address indexed owner, uint256 indexed txIndex);\n\n    address[] public owners;\n    mapping(address => bool) public isOwner;\n    uint256 public numConfirmationsRequired;\n\n    struct Transaction {\n        address to;\n        uint256 value;\n        bool executed;\n        uint256 numConfirmations;\n    }\n\n    // mapping from tx index => owner => bool\n    mapping(uint256 => mapping(address => bool)) public isConfirmed;\n\n    Transaction[] public transactions;\n\n    modifier onlyOwner(address _sender) {\n        require(isOwner[_sender], \"MultiSigWallet: not owner\");\n        _;\n    }\n\n    modifier txExists(uint256 _txIndex) {\n        require(\n            _txIndex < transactions.length,\n            \"MultiSigWallet: tx does not exist\"\n        );\n        _;\n    }\n\n    modifier notExecuted(uint256 _txIndex) {\n        require(\n            !transactions[_txIndex].executed,\n            \"MultiSigWallet: tx already executed\"\n        );\n        _;\n    }\n\n    modifier notConfirmed(address _sender, uint256 _txIndex) {\n        require(\n            !isConfirmed[_txIndex][_sender],\n            \"MultiSigWallet: tx already confirmed\"\n        );\n        _;\n    }\n\n    constructor(address[] memory _owners, uint256 _numConfirmationsRequired) {\n        require(_owners.length > 0, \"MultiSigWallet: owners required\");\n        require(\n            _numConfirmationsRequired > 0 &&\n                _numConfirmationsRequired <= _owners.length,\n            \"MultiSigWallet: invalid number of required confirmations\"\n        );\n\n        for (uint256 i = 0; i < _owners.length; i++) {\n            address owner = _owners[i];\n\n            require(owner != address(0), \"MultiSigWallet: invalid owner\");\n            require(!isOwner[owner], \"MultiSigWallet: owner not unique\");\n\n            isOwner[owner] = true;\n            owners.push(owner);\n        }\n\n        numConfirmationsRequired = _numConfirmationsRequired;\n    }\n\n    function submitTransaction(\n        address _sender,\n        address _to,\n        uint256 _value\n    ) public onlyOwner(_sender) {\n        uint256 txIndex = transactions.length;\n\n        transactions.push(\n            Transaction({\n                to: _to,\n                value: _value,\n                executed: false,\n                numConfirmations: 0\n            })\n        );\n\n        emit SubmitTransaction(msg.sender, txIndex, _to, _value);\n    }\n\n    function confirmTransaction(address _sender, uint256 _txIndex)\n        public\n        onlyOwner(_sender)\n        txExists(_txIndex)\n        notExecuted(_txIndex)\n        notConfirmed(_sender, _txIndex)\n    {\n        Transaction storage transaction = transactions[_txIndex];\n        transaction.numConfirmations += 1;\n        isConfirmed[_txIndex][_sender] = true;\n\n        emit ConfirmTransaction(_sender, _txIndex);\n    }\n\n    event checkEvent(Transaction);\n\n    function executeTransaction(address _sender, uint256 _txIndex)\n        public\n        onlyOwner(_sender)\n        txExists(_txIndex)\n        notExecuted(_txIndex)\n    {\n        Transaction storage transaction = transactions[_txIndex];\n\n        require(\n            transaction.numConfirmations >= numConfirmationsRequired,\n            \"MultiSigWallet: cannot execute tx\"\n        );\n\n        transaction.executed = true;\n\n        emit ExecuteTransaction(_sender, _txIndex);\n    }\n\n    function getOwners() public view returns (address[] memory) {\n        return owners;\n    }\n\n    function getTransactionCount() public view returns (uint256) {\n        return transactions.length;\n    }\n\n    function getTransaction(uint256 _txIndex)\n        public\n        view\n        returns (\n            address to,\n            uint256 value,\n            bool executed,\n            uint256 numConfirmations\n        )\n    {\n        Transaction storage transaction = transactions[_txIndex];\n\n        return (\n            transaction.to,\n            transaction.value,\n            transaction.executed,\n            transaction.numConfirmations\n        );\n    }\n}\n",
  "sourcePath": "/home/taranchik/Public/Workflow/deal-smart-contract/contracts/MultiSigWallet.sol",
  "compiler": {
    "name": "solc",
    "version": "0.8.7+commit.e28d00a7.Emscripten.clang"
  },
  "schemaVersion": "3.4.3",
  "updatedAt": "2021-09-22T17:08:23.420Z",
  "devdoc": {
    "kind": "dev",
    "methods": {},
    "version": 1
  },
  "userdoc": {
    "kind": "user",
    "methods": {},
    "version": 1
  }
}